{
  "contractName": "ChargerList",
  "abi": [
    {
      "inputs": [],
      "payable": false,
      "stateMutability": "nonpayable",
      "type": "constructor"
    },
    {
      "constant": true,
      "inputs": [
        {
          "internalType": "uint256",
          "name": "",
          "type": "uint256"
        }
      ],
      "name": "list",
      "outputs": [
        {
          "internalType": "address",
          "name": "",
          "type": "address"
        }
      ],
      "payable": false,
      "stateMutability": "view",
      "type": "function"
    },
    {
      "constant": true,
      "inputs": [],
      "name": "owner",
      "outputs": [
        {
          "internalType": "address",
          "name": "",
          "type": "address"
        }
      ],
      "payable": false,
      "stateMutability": "view",
      "type": "function"
    },
    {
      "constant": false,
      "inputs": [
        {
          "internalType": "address",
          "name": "charger",
          "type": "address"
        }
      ],
      "name": "put",
      "outputs": [],
      "payable": false,
      "stateMutability": "nonpayable",
      "type": "function"
    },
    {
      "constant": false,
      "inputs": [
        {
          "internalType": "address",
          "name": "charger",
          "type": "address"
        }
      ],
      "name": "del",
      "outputs": [],
      "payable": false,
      "stateMutability": "nonpayable",
      "type": "function"
    },
    {
      "constant": true,
      "inputs": [],
      "name": "get",
      "outputs": [
        {
          "internalType": "address[]",
          "name": "",
          "type": "address[]"
        }
      ],
      "payable": false,
      "stateMutability": "view",
      "type": "function"
    }
  ],
  "bytecode": "0x608060405234801561001057600080fd5b50336000806101000a81548173ffffffffffffffffffffffffffffffffffffffff021916908373ffffffffffffffffffffffffffffffffffffffff1602179055506106bd806100606000396000f3fe608060405234801561001057600080fd5b50600436106100575760003560e01c80636d4ce63c1461005c57806380c9419e146100bb5780638da5cb5b14610129578063b124ed5814610173578063b9caebf4146101b7575b600080fd5b6100646101fb565b6040518080602001828103825283818151815260200191508051906020019060200280838360005b838110156100a757808201518184015260208101905061008c565b505050509050019250505060405180910390f35b6100e7600480360360208110156100d157600080fd5b81019080803590602001909291905050506102d7565b604051808273ffffffffffffffffffffffffffffffffffffffff1673ffffffffffffffffffffffffffffffffffffffff16815260200191505060405180910390f35b610131610313565b604051808273ffffffffffffffffffffffffffffffffffffffff1673ffffffffffffffffffffffffffffffffffffffff16815260200191505060405180910390f35b6101b56004803603602081101561018957600080fd5b81019080803573ffffffffffffffffffffffffffffffffffffffff169060200190929190505050610338565b005b6101f9600480360360208110156101cd57600080fd5b81019080803573ffffffffffffffffffffffffffffffffffffffff169060200190929190505050610463565b005b6060806001805490506040519080825280602002602001820160405280156102325781602001602082028038833980820191505090505b50905060008090505b81518110156102cf576001818154811061025157fe5b9060005260206000200160009054906101000a900473ffffffffffffffffffffffffffffffffffffffff1682828151811061028857fe5b602002602001019073ffffffffffffffffffffffffffffffffffffffff16908173ffffffffffffffffffffffffffffffffffffffff1681525050808060010191505061023b565b508091505090565b600181815481106102e457fe5b906000526020600020016000915054906101000a900473ffffffffffffffffffffffffffffffffffffffff1681565b6000809054906101000a900473ffffffffffffffffffffffffffffffffffffffff1681565b6000809054906101000a900473ffffffffffffffffffffffffffffffffffffffff1673ffffffffffffffffffffffffffffffffffffffff163373ffffffffffffffffffffffffffffffffffffffff16146103fa576040517f08c379a00000000000000000000000000000000000000000000000000000000081526004018080602001828103825260148152602001807f596f7520617265206e6f7420616e206f776e657200000000000000000000000081525060200191505060405180910390fd5b60018190806001815401808255809150509060018203906000526020600020016000909192909190916101000a81548173ffffffffffffffffffffffffffffffffffffffff021916908373ffffffffffffffffffffffffffffffffffffffff1602179055505050565b6000809054906101000a900473ffffffffffffffffffffffffffffffffffffffff1673ffffffffffffffffffffffffffffffffffffffff163373ffffffffffffffffffffffffffffffffffffffff1614610525576040517f08c379a00000000000000000000000000000000000000000000000000000000081526004018080602001828103825260148152602001807f596f7520617265206e6f7420616e206f776e657200000000000000000000000081525060200191505060405180910390fd5b60008090505b600180549050811015610684578173ffffffffffffffffffffffffffffffffffffffff166001828154811061055c57fe5b9060005260206000200160009054906101000a900473ffffffffffffffffffffffffffffffffffffffff1673ffffffffffffffffffffffffffffffffffffffff16141561067757600180808054905003815481106105b657fe5b9060005260206000200160009054906101000a900473ffffffffffffffffffffffffffffffffffffffff16600182815481106105ee57fe5b9060005260206000200160006101000a81548173ffffffffffffffffffffffffffffffffffffffff021916908373ffffffffffffffffffffffffffffffffffffffff160217905550600180548061064157fe5b6001900381819060005260206000200160006101000a81549073ffffffffffffffffffffffffffffffffffffffff021916905590555b808060010191505061052b565b505056fea265627a7a72315820cadef36046a98604045c75d24499a41573ca9ef934bced9a495784d24c8a255764736f6c63430005100032",
  "source": "// SPDX-License-Identifier: MIT\n// Solidity files have to start with this pragma.\n// It will be used by the Solidity compiler to validate its version.\npragma solidity 0.5.16;\n\n// import \"hardhat/console.sol\";\n\n\n// This is the main building block for smart contracts.\ncontract ChargerList {\n\n    // An address type variable is used to store ethereum accounts.\n    address public owner;\n    address[] public list;\n    constructor() public {\n        owner = msg.sender;\n    }\n\n    function put(address charger) public {\n        require(msg.sender == owner, \"You are not an owner\");\n        list.push(charger);\n    }\n\n    function del(address charger) public {\n        require(msg.sender == owner, \"You are not an owner\");\n        for (uint i=0; i<list.length; i++) {\n            if(list[i]==charger) {\n                list[i] = list[list.length - 1];\n                list.pop();\n            }\n        }\n    }    \n\n    function get() view public returns (address[] memory) {\n        address[] memory b = new address[](list.length);\n        for (uint i=0; i < b.length; i++) {\n            b[i] = list[i];\n        }\n        return b;\n    }    \n}",
  "sourcePath": "/Users/humblefirm/Documents/GitHub/contract-pool/contracts/pool/ChargerList.sol",
  "compiler": {
    "name": "solc",
    "version": "0.5.16+commit.9c3226ce.Emscripten.clang"
  },
  "schemaVersion": "3.4.3",
  "updatedAt": "2021-11-11T10:00:54.005Z",
  "networkType": "ethereum",
  "devdoc": {
    "methods": {}
  },
  "userdoc": {
    "methods": {}
  }
}