{
  "contractName": "Pool",
  "abi": [
    {
      "anonymous": false,
      "inputs": [
        {
          "indexed": true,
          "internalType": "address",
          "name": "previousOwner",
          "type": "address"
        },
        {
          "indexed": true,
          "internalType": "address",
          "name": "newOwner",
          "type": "address"
        }
      ],
      "name": "OwnershipTransferred",
      "type": "event"
    },
    {
      "anonymous": false,
      "inputs": [
        {
          "indexed": false,
          "internalType": "uint256",
          "name": "reward",
          "type": "uint256"
        }
      ],
      "name": "RewardAdded",
      "type": "event"
    },
    {
      "anonymous": false,
      "inputs": [
        {
          "indexed": true,
          "internalType": "address",
          "name": "user",
          "type": "address"
        },
        {
          "indexed": false,
          "internalType": "uint256",
          "name": "reward",
          "type": "uint256"
        }
      ],
      "name": "RewardPaid",
      "type": "event"
    },
    {
      "anonymous": false,
      "inputs": [
        {
          "indexed": true,
          "internalType": "address",
          "name": "user",
          "type": "address"
        },
        {
          "indexed": false,
          "internalType": "uint256",
          "name": "amount",
          "type": "uint256"
        }
      ],
      "name": "SetLimit",
      "type": "event"
    },
    {
      "anonymous": false,
      "inputs": [
        {
          "indexed": false,
          "internalType": "bool",
          "name": "_open",
          "type": "bool"
        }
      ],
      "name": "SetOpen",
      "type": "event"
    },
    {
      "anonymous": false,
      "inputs": [
        {
          "indexed": true,
          "internalType": "address",
          "name": "user",
          "type": "address"
        },
        {
          "indexed": false,
          "internalType": "uint256",
          "name": "amount",
          "type": "uint256"
        }
      ],
      "name": "Staked",
      "type": "event"
    },
    {
      "anonymous": false,
      "inputs": [
        {
          "indexed": true,
          "internalType": "address",
          "name": "user",
          "type": "address"
        },
        {
          "indexed": false,
          "internalType": "uint256",
          "name": "amount",
          "type": "uint256"
        }
      ],
      "name": "Withdrawn",
      "type": "event"
    },
    {
      "constant": true,
      "inputs": [],
      "name": "DURATION",
      "outputs": [
        {
          "internalType": "uint256",
          "name": "",
          "type": "uint256"
        }
      ],
      "payable": false,
      "stateMutability": "view",
      "type": "function"
    },
    {
      "constant": true,
      "inputs": [
        {
          "internalType": "address",
          "name": "account",
          "type": "address"
        }
      ],
      "name": "balanceOf",
      "outputs": [
        {
          "internalType": "uint256",
          "name": "",
          "type": "uint256"
        }
      ],
      "payable": false,
      "stateMutability": "view",
      "type": "function"
    },
    {
      "constant": true,
      "inputs": [],
      "name": "isOwner",
      "outputs": [
        {
          "internalType": "bool",
          "name": "",
          "type": "bool"
        }
      ],
      "payable": false,
      "stateMutability": "view",
      "type": "function"
    },
    {
      "constant": true,
      "inputs": [],
      "name": "lastUpdateTime",
      "outputs": [
        {
          "internalType": "uint256",
          "name": "",
          "type": "uint256"
        }
      ],
      "payable": false,
      "stateMutability": "view",
      "type": "function"
    },
    {
      "constant": true,
      "inputs": [],
      "name": "limit",
      "outputs": [
        {
          "internalType": "uint256",
          "name": "",
          "type": "uint256"
        }
      ],
      "payable": false,
      "stateMutability": "view",
      "type": "function"
    },
    {
      "constant": true,
      "inputs": [],
      "name": "name",
      "outputs": [
        {
          "internalType": "string",
          "name": "",
          "type": "string"
        }
      ],
      "payable": false,
      "stateMutability": "view",
      "type": "function"
    },
    {
      "constant": true,
      "inputs": [],
      "name": "owner",
      "outputs": [
        {
          "internalType": "address",
          "name": "",
          "type": "address"
        }
      ],
      "payable": false,
      "stateMutability": "view",
      "type": "function"
    },
    {
      "constant": true,
      "inputs": [],
      "name": "periodFinish",
      "outputs": [
        {
          "internalType": "uint256",
          "name": "",
          "type": "uint256"
        }
      ],
      "payable": false,
      "stateMutability": "view",
      "type": "function"
    },
    {
      "constant": false,
      "inputs": [],
      "name": "renounceOwnership",
      "outputs": [],
      "payable": false,
      "stateMutability": "nonpayable",
      "type": "function"
    },
    {
      "constant": true,
      "inputs": [],
      "name": "rewardPerTokenStored",
      "outputs": [
        {
          "internalType": "uint256",
          "name": "",
          "type": "uint256"
        }
      ],
      "payable": false,
      "stateMutability": "view",
      "type": "function"
    },
    {
      "constant": true,
      "inputs": [],
      "name": "rewardRate",
      "outputs": [
        {
          "internalType": "uint256",
          "name": "",
          "type": "uint256"
        }
      ],
      "payable": false,
      "stateMutability": "view",
      "type": "function"
    },
    {
      "constant": true,
      "inputs": [],
      "name": "rewardToken",
      "outputs": [
        {
          "internalType": "contract IERC20",
          "name": "",
          "type": "address"
        }
      ],
      "payable": false,
      "stateMutability": "view",
      "type": "function"
    },
    {
      "constant": true,
      "inputs": [
        {
          "internalType": "address",
          "name": "",
          "type": "address"
        }
      ],
      "name": "rewards",
      "outputs": [
        {
          "internalType": "uint256",
          "name": "",
          "type": "uint256"
        }
      ],
      "payable": false,
      "stateMutability": "view",
      "type": "function"
    },
    {
      "constant": false,
      "inputs": [
        {
          "internalType": "address",
          "name": "_rewardDistribution",
          "type": "address"
        }
      ],
      "name": "setRewardDistribution",
      "outputs": [],
      "payable": false,
      "stateMutability": "nonpayable",
      "type": "function"
    },
    {
      "constant": true,
      "inputs": [],
      "name": "stakeToken",
      "outputs": [
        {
          "internalType": "contract IERC20",
          "name": "",
          "type": "address"
        }
      ],
      "payable": false,
      "stateMutability": "view",
      "type": "function"
    },
    {
      "constant": true,
      "inputs": [],
      "name": "startTime",
      "outputs": [
        {
          "internalType": "uint256",
          "name": "",
          "type": "uint256"
        }
      ],
      "payable": false,
      "stateMutability": "view",
      "type": "function"
    },
    {
      "constant": true,
      "inputs": [],
      "name": "totalSupply",
      "outputs": [
        {
          "internalType": "uint256",
          "name": "",
          "type": "uint256"
        }
      ],
      "payable": false,
      "stateMutability": "view",
      "type": "function"
    },
    {
      "constant": false,
      "inputs": [
        {
          "internalType": "address",
          "name": "newOwner",
          "type": "address"
        }
      ],
      "name": "transferOwnership",
      "outputs": [],
      "payable": false,
      "stateMutability": "nonpayable",
      "type": "function"
    },
    {
      "constant": true,
      "inputs": [
        {
          "internalType": "address",
          "name": "",
          "type": "address"
        }
      ],
      "name": "userRewardPerTokenPaid",
      "outputs": [
        {
          "internalType": "uint256",
          "name": "",
          "type": "uint256"
        }
      ],
      "payable": false,
      "stateMutability": "view",
      "type": "function"
    },
    {
      "constant": true,
      "inputs": [],
      "name": "lastTimeRewardApplicable",
      "outputs": [
        {
          "internalType": "uint256",
          "name": "",
          "type": "uint256"
        }
      ],
      "payable": false,
      "stateMutability": "view",
      "type": "function"
    },
    {
      "constant": true,
      "inputs": [],
      "name": "rewardPerToken",
      "outputs": [
        {
          "internalType": "uint256",
          "name": "",
          "type": "uint256"
        }
      ],
      "payable": false,
      "stateMutability": "view",
      "type": "function"
    },
    {
      "constant": true,
      "inputs": [
        {
          "internalType": "address",
          "name": "account",
          "type": "address"
        }
      ],
      "name": "earned",
      "outputs": [
        {
          "internalType": "uint256",
          "name": "",
          "type": "uint256"
        }
      ],
      "payable": false,
      "stateMutability": "view",
      "type": "function"
    },
    {
      "constant": false,
      "inputs": [
        {
          "internalType": "uint256",
          "name": "amount",
          "type": "uint256"
        }
      ],
      "name": "stake",
      "outputs": [],
      "payable": false,
      "stateMutability": "nonpayable",
      "type": "function"
    },
    {
      "constant": false,
      "inputs": [
        {
          "internalType": "uint256",
          "name": "amount",
          "type": "uint256"
        }
      ],
      "name": "withdraw",
      "outputs": [],
      "payable": false,
      "stateMutability": "nonpayable",
      "type": "function"
    },
    {
      "constant": false,
      "inputs": [
        {
          "internalType": "address",
          "name": "account",
          "type": "address"
        },
        {
          "internalType": "uint256",
          "name": "amount",
          "type": "uint256"
        }
      ],
      "name": "withdrawAccount",
      "outputs": [],
      "payable": false,
      "stateMutability": "nonpayable",
      "type": "function"
    },
    {
      "constant": false,
      "inputs": [
        {
          "internalType": "address",
          "name": "account",
          "type": "address"
        },
        {
          "internalType": "uint256",
          "name": "amount",
          "type": "uint256"
        }
      ],
      "name": "withdrawLeftRewards",
      "outputs": [],
      "payable": false,
      "stateMutability": "nonpayable",
      "type": "function"
    },
    {
      "constant": false,
      "inputs": [
        {
          "internalType": "uint256",
          "name": "amount",
          "type": "uint256"
        }
      ],
      "name": "setLimit",
      "outputs": [],
      "payable": false,
      "stateMutability": "nonpayable",
      "type": "function"
    },
    {
      "constant": false,
      "inputs": [],
      "name": "exit",
      "outputs": [],
      "payable": false,
      "stateMutability": "nonpayable",
      "type": "function"
    },
    {
      "constant": false,
      "inputs": [],
      "name": "getReward",
      "outputs": [],
      "payable": false,
      "stateMutability": "nonpayable",
      "type": "function"
    },
    {
      "constant": true,
      "inputs": [],
      "name": "getPeriodFinish",
      "outputs": [
        {
          "internalType": "uint256",
          "name": "",
          "type": "uint256"
        }
      ],
      "payable": false,
      "stateMutability": "view",
      "type": "function"
    },
    {
      "constant": true,
      "inputs": [],
      "name": "isOpen",
      "outputs": [
        {
          "internalType": "bool",
          "name": "",
          "type": "bool"
        }
      ],
      "payable": false,
      "stateMutability": "view",
      "type": "function"
    },
    {
      "constant": false,
      "inputs": [
        {
          "internalType": "bool",
          "name": "_open",
          "type": "bool"
        }
      ],
      "name": "setOpen",
      "outputs": [],
      "payable": false,
      "stateMutability": "nonpayable",
      "type": "function"
    },
    {
      "constant": false,
      "inputs": [
        {
          "internalType": "uint256",
          "name": "reward",
          "type": "uint256"
        }
      ],
      "name": "notifyRewardAmount",
      "outputs": [],
      "payable": false,
      "stateMutability": "nonpayable",
      "type": "function"
    }
  ],
  "bytecode": "0x608060405273bddc276cacc18e9177b2f5cfb3bfb6eef491799b6000806101000a81548173ffffffffffffffffffffffffffffffffffffffff021916908373ffffffffffffffffffffffffffffffffffffffff16021790555073bddc276cacc18e9177b2f5cfb3bfb6eef491799b600560006101000a81548173ffffffffffffffffffffffffffffffffffffffff021916908373ffffffffffffffffffffffffffffffffffffffff1602179055506040518060400160405280600d81526020017f372e323320466c657869626c650000000000000000000000000000000000000081525060069080519060200190620000fa92919062000205565b506000600755600060085560006009556000600b556001600c60006101000a81548160ff0219169083151502179055506200013a620001fd60201b60201c565b600360006101000a81548173ffffffffffffffffffffffffffffffffffffffff021916908373ffffffffffffffffffffffffffffffffffffffff160217905550600360009054906101000a900473ffffffffffffffffffffffffffffffffffffffff1673ffffffffffffffffffffffffffffffffffffffff16600073ffffffffffffffffffffffffffffffffffffffff167f8be0079c531659141344cd1fd0a4f28419497f9722a3daafe3b4186f6b6457e060405160405180910390a3620002b4565b600033905090565b828054600181600116156101000203166002900490600052602060002090601f016020900481019282601f106200024857805160ff191683800117855562000279565b8280016001018555821562000279579182015b82811115620002785782518255916020019190600101906200025b565b5b5090506200028891906200028c565b5090565b620002b191905b80821115620002ad57600081600090555060010162000293565b5090565b90565b61319f80620002c46000396000f3fe608060405234801561001057600080fd5b50600436106101fa5760003560e01c806378e979251161011a578063a694fc3a116100ad578063df136d651161007c578063df136d65146107a4578063e9fad8ee146107c2578063ebe2b12b146107cc578063f2fde38b146107ea578063f7c618c11461082e576101fa565b8063a694fc3a1461071c578063c8f33c911461074a578063cb17d14f14610768578063cd3daf9d14610786576101fa565b80638b876347116100e95780638b8763471461063a5780638da5cb5b146106925780638f32d59b146106dc578063a4d66daf146106fe576101fa565b806378e97925146105925780637b0a47ee146105b05780637ce3dbe1146105ce57806380faa57d1461061c576101fa565b80633c6b16ab11610192578063631f509e11610161578063631f509e146104b25780636fdca5e01461050057806370a0823114610530578063715018a614610588576101fa565b80633c6b16ab1461040e5780633d18b9121461043c57806347535d7b1461044657806351ed6a3014610468576101fa565b806318160ddd116101ce57806318160ddd146103765780631be052891461039457806327ea6f2b146103b25780632e1a7d4d146103e0576101fa565b80628cc262146101ff57806306fdde03146102575780630700037d146102da5780630d68b76114610332575b600080fd5b6102416004803603602081101561021557600080fd5b81019080803573ffffffffffffffffffffffffffffffffffffffff169060200190929190505050610878565b6040518082815260200191505060405180910390f35b61025f61095f565b6040518080602001828103825283818151815260200191508051906020019080838360005b8381101561029f578082015181840152602081019050610284565b50505050905090810190601f1680156102cc5780820380516001836020036101000a031916815260200191505b509250505060405180910390f35b61031c600480360360208110156102f057600080fd5b81019080803573ffffffffffffffffffffffffffffffffffffffff1690602001909291905050506109fd565b6040518082815260200191505060405180910390f35b6103746004803603602081101561034857600080fd5b81019080803573ffffffffffffffffffffffffffffffffffffffff169060200190929190505050610a15565b005b61037e610ad3565b6040518082815260200191505060405180910390f35b61039c610add565b6040518082815260200191505060405180910390f35b6103de600480360360208110156103c857600080fd5b8101908080359060200190929190505050610ae4565b005b61040c600480360360208110156103f657600080fd5b8101908080359060200190929190505050610c60565b005b61043a6004803603602081101561042457600080fd5b8101908080359060200190929190505050610e15565b005b610444611332565b005b61044e61158a565b604051808215151515815260200191505060405180910390f35b6104706115a1565b604051808273ffffffffffffffffffffffffffffffffffffffff1673ffffffffffffffffffffffffffffffffffffffff16815260200191505060405180910390f35b6104fe600480360360408110156104c857600080fd5b81019080803573ffffffffffffffffffffffffffffffffffffffff169060200190929190803590602001909291905050506115c6565b005b61052e6004803603602081101561051657600080fd5b810190808035151590602001909291905050506118a3565b005b6105726004803603602081101561054657600080fd5b81019080803573ffffffffffffffffffffffffffffffffffffffff169060200190929190505050611975565b6040518082815260200191505060405180910390f35b6105906119be565b005b61059a611af9565b6040518082815260200191505060405180910390f35b6105b8611b01565b6040518082815260200191505060405180910390f35b61061a600480360360408110156105e457600080fd5b81019080803573ffffffffffffffffffffffffffffffffffffffff16906020019092919080359060200190929190505050611b07565b005b610624611d47565b6040518082815260200191505060405180910390f35b61067c6004803603602081101561065057600080fd5b81019080803573ffffffffffffffffffffffffffffffffffffffff169060200190929190505050611d5a565b6040518082815260200191505060405180910390f35b61069a611d72565b604051808273ffffffffffffffffffffffffffffffffffffffff1673ffffffffffffffffffffffffffffffffffffffff16815260200191505060405180910390f35b6106e4611d9c565b604051808215151515815260200191505060405180910390f35b610706611dfb565b6040518082815260200191505060405180910390f35b6107486004803603602081101561073257600080fd5b8101908080359060200190929190505050611e01565b005b610752612154565b6040518082815260200191505060405180910390f35b61077061215a565b6040518082815260200191505060405180910390f35b61078e612164565b6040518082815260200191505060405180910390f35b6107ac6121fc565b6040518082815260200191505060405180910390f35b6107ca612202565b005b6107d461221d565b6040518082815260200191505060405180910390f35b61082c6004803603602081101561080057600080fd5b81019080803573ffffffffffffffffffffffffffffffffffffffff169060200190929190505050612223565b005b6108366122a9565b604051808273ffffffffffffffffffffffffffffffffffffffff1673ffffffffffffffffffffffffffffffffffffffff16815260200191505060405180910390f35b6000610958600e60008473ffffffffffffffffffffffffffffffffffffffff1673ffffffffffffffffffffffffffffffffffffffff1681526020019081526020016000205461094a670de0b6b3a764000061093c610925600d60008973ffffffffffffffffffffffffffffffffffffffff1673ffffffffffffffffffffffffffffffffffffffff16815260200190815260200160002054610917612164565b6122cf90919063ffffffff16565b61092e88611975565b61231990919063ffffffff16565b61239f90919063ffffffff16565b6123e990919063ffffffff16565b9050919050565b60068054600181600116156101000203166002900480601f0160208091040260200160405190810160405280929190818152602001828054600181600116156101000203166002900480156109f55780601f106109ca576101008083540402835291602001916109f5565b820191906000526020600020905b8154815290600101906020018083116109d857829003601f168201915b505050505081565b600e6020528060005260406000206000915090505481565b610a1d611d9c565b610a8f576040517f08c379a00000000000000000000000000000000000000000000000000000000081526004018080602001828103825260208152602001807f4f776e61626c653a2063616c6c6572206973206e6f7420746865206f776e657281525060200191505060405180910390fd5b80600460006101000a81548173ffffffffffffffffffffffffffffffffffffffff021916908373ffffffffffffffffffffffffffffffffffffffff16021790555050565b6000600154905090565b6201518081565b600460009054906101000a900473ffffffffffffffffffffffffffffffffffffffff1673ffffffffffffffffffffffffffffffffffffffff16610b25612471565b73ffffffffffffffffffffffffffffffffffffffff1614610b91576040517f08c379a00000000000000000000000000000000000000000000000000000000081526004018080602001828103825260218152602001806131206021913960400191505060405180910390fd5b6000811015610c08576040517f08c379a00000000000000000000000000000000000000000000000000000000081526004018080602001828103825260158152602001807f504f4f4c3a206c696d6974206d757374203e3d2030000000000000000000000081525060200191505060405180910390fd5b806007819055503373ffffffffffffffffffffffffffffffffffffffff167f195f01c216465063f9e6a5cc900b834b284e36961065b3d5f63b115ecd88582a826040518082815260200191505060405180910390a250565b33610c69612164565b600b81905550610c77611d47565b600a81905550600073ffffffffffffffffffffffffffffffffffffffff168173ffffffffffffffffffffffffffffffffffffffff1614610d4457610cba81610878565b600e60008373ffffffffffffffffffffffffffffffffffffffff1673ffffffffffffffffffffffffffffffffffffffff16815260200190815260200160002081905550600b54600d60008373ffffffffffffffffffffffffffffffffffffffff1673ffffffffffffffffffffffffffffffffffffffff168152602001908152602001600020819055505b60008211610dba576040517f08c379a00000000000000000000000000000000000000000000000000000000081526004018080602001828103825260178152602001807f504f4f4c3a2043616e6e6f74207769746864726177203000000000000000000081525060200191505060405180910390fd5b610dc382612479565b3373ffffffffffffffffffffffffffffffffffffffff167f7084f5476618d8e60b11ef0d7d3f06914655adb8793e28ff7f018d4c76d505d5836040518082815260200191505060405180910390a25050565b600460009054906101000a900473ffffffffffffffffffffffffffffffffffffffff1673ffffffffffffffffffffffffffffffffffffffff16610e56612471565b73ffffffffffffffffffffffffffffffffffffffff1614610ec2576040517f08c379a00000000000000000000000000000000000000000000000000000000081526004018080602001828103825260218152602001806131206021913960400191505060405180910390fd5b600c60009054906101000a900460ff168015610ee65750620151806360fabd500142105b610f58576040517f08c379a00000000000000000000000000000000000000000000000000000000081526004018080602001828103825260148152602001807f504f4f4c3a20506f6f6c20697320636c6f73656400000000000000000000000081525060200191505060405180910390fd5b6000610f62612164565b600b81905550610f70611d47565b600a81905550600073ffffffffffffffffffffffffffffffffffffffff168173ffffffffffffffffffffffffffffffffffffffff161461103d57610fb381610878565b600e60008373ffffffffffffffffffffffffffffffffffffffff1673ffffffffffffffffffffffffffffffffffffffff16815260200190815260200160002081905550600b54600d60008373ffffffffffffffffffffffffffffffffffffffff1673ffffffffffffffffffffffffffffffffffffffff168152602001908152602001600020819055505b6360fabd504211156111665760085442106110fa5760006110936001611085620151806110776360fabd50426122cf90919063ffffffff16565b61239f90919063ffffffff16565b6123e990919063ffffffff16565b90506110c16110ae620151808361231990919063ffffffff16565b6360fabd506123e990919063ffffffff16565b6008819055506110ee6110df426008546122cf90919063ffffffff16565b8461239f90919063ffffffff16565b6009819055505061115a565b6000611111426008546122cf90919063ffffffff16565b9050600061112a6009548361231990919063ffffffff16565b90506111518261114383876123e990919063ffffffff16565b61239f90919063ffffffff16565b60098190555050505b42600a8190555061129f565b6000600560009054906101000a900473ffffffffffffffffffffffffffffffffffffffff1673ffffffffffffffffffffffffffffffffffffffff166370a08231306040518263ffffffff1660e01b8152600401808273ffffffffffffffffffffffffffffffffffffffff1673ffffffffffffffffffffffffffffffffffffffff16815260200191505060206040518083038186803b15801561120757600080fd5b505afa15801561121b573d6000803e3d6000fd5b505050506040513d602081101561123157600080fd5b8101908080519060200190929190505050905061126c6201518061125e83866123e990919063ffffffff16565b61239f90919063ffffffff16565b60098190555061128c620151806360fabd506123e990919063ffffffff16565b6008819055506360fabd50600a81905550505b6112ee333084600560009054906101000a900473ffffffffffffffffffffffffffffffffffffffff1673ffffffffffffffffffffffffffffffffffffffff16612578909392919063ffffffff16565b7fde88a922e0d3b88b24e9623efeb464919c6bf9f66857a65e2bfcf2ce87a9433d826040518082815260200191505060405180910390a161132d61267e565b505050565b6360fabd5042116113ab576040517f08c379a000000000000000000000000000000000000000000000000000000000815260040180806020018281038252600f8152602001807f504f4f4c3a204e6f74207374617274000000000000000000000000000000000081525060200191505060405180910390fd5b336113b4612164565b600b819055506113c2611d47565b600a81905550600073ffffffffffffffffffffffffffffffffffffffff168173ffffffffffffffffffffffffffffffffffffffff161461148f5761140581610878565b600e60008373ffffffffffffffffffffffffffffffffffffffff1673ffffffffffffffffffffffffffffffffffffffff16815260200190815260200160002081905550600b54600d60008373ffffffffffffffffffffffffffffffffffffffff1673ffffffffffffffffffffffffffffffffffffffff168152602001908152602001600020819055505b600061149a33610878565b90506000811115611586576000600e60003373ffffffffffffffffffffffffffffffffffffffff1673ffffffffffffffffffffffffffffffffffffffff168152602001908152602001600020819055506115373382600560009054906101000a900473ffffffffffffffffffffffffffffffffffffffff1673ffffffffffffffffffffffffffffffffffffffff166126b79092919063ffffffff16565b3373ffffffffffffffffffffffffffffffffffffffff167fe2403640ba68fed3a2f88b7557551d1993f84b99bb10ff833f0cf8db0c5e0486826040518082815260200191505060405180910390a25b5050565b6000600c60009054906101000a900460ff16905090565b6000809054906101000a900473ffffffffffffffffffffffffffffffffffffffff1681565b6360fabd50421161163f576040517f08c379a000000000000000000000000000000000000000000000000000000000815260040180806020018281038252600f8152602001807f504f4f4c3a204e6f74207374617274000000000000000000000000000000000081525060200191505060405180910390fd5b600460009054906101000a900473ffffffffffffffffffffffffffffffffffffffff1673ffffffffffffffffffffffffffffffffffffffff16611680612471565b73ffffffffffffffffffffffffffffffffffffffff16146116ec576040517f08c379a00000000000000000000000000000000000000000000000000000000081526004018080602001828103825260218152602001806131206021913960400191505060405180910390fd5b816116f5612164565b600b81905550611703611d47565b600a81905550600073ffffffffffffffffffffffffffffffffffffffff168173ffffffffffffffffffffffffffffffffffffffff16146117d05761174681610878565b600e60008373ffffffffffffffffffffffffffffffffffffffff1673ffffffffffffffffffffffffffffffffffffffff16815260200190815260200160002081905550600b54600d60008373ffffffffffffffffffffffffffffffffffffffff1673ffffffffffffffffffffffffffffffffffffffff168152602001908152602001600020819055505b60008211611846576040517f08c379a00000000000000000000000000000000000000000000000000000000081526004018080602001828103825260178152602001807f504f4f4c3a2043616e6e6f74207769746864726177203000000000000000000081525060200191505060405180910390fd5b6118508383612788565b8273ffffffffffffffffffffffffffffffffffffffff167f7084f5476618d8e60b11ef0d7d3f06914655adb8793e28ff7f018d4c76d505d5836040518082815260200191505060405180910390a2505050565b6118ab611d9c565b61191d576040517f08c379a00000000000000000000000000000000000000000000000000000000081526004018080602001828103825260208152602001807f4f776e61626c653a2063616c6c6572206973206e6f7420746865206f776e657281525060200191505060405180910390fd5b80600c60006101000a81548160ff0219169083151502179055507f294847065aeb5e8e788661acfc7dbcb26c7f0454406268fce96109d7136928af81604051808215151515815260200191505060405180910390a150565b6000600260008373ffffffffffffffffffffffffffffffffffffffff1673ffffffffffffffffffffffffffffffffffffffff168152602001908152602001600020549050919050565b6119c6611d9c565b611a38576040517f08c379a00000000000000000000000000000000000000000000000000000000081526004018080602001828103825260208152602001807f4f776e61626c653a2063616c6c6572206973206e6f7420746865206f776e657281525060200191505060405180910390fd5b600073ffffffffffffffffffffffffffffffffffffffff16600360009054906101000a900473ffffffffffffffffffffffffffffffffffffffff1673ffffffffffffffffffffffffffffffffffffffff167f8be0079c531659141344cd1fd0a4f28419497f9722a3daafe3b4186f6b6457e060405160405180910390a36000600360006101000a81548173ffffffffffffffffffffffffffffffffffffffff021916908373ffffffffffffffffffffffffffffffffffffffff160217905550565b6360fabd5081565b60095481565b620151806360fabd50014211611b85576040517f08c379a00000000000000000000000000000000000000000000000000000000081526004018080602001828103825260148152602001807f504f4f4c3a20506f6f6c206973206f70656e656400000000000000000000000081525060200191505060405180910390fd5b600460009054906101000a900473ffffffffffffffffffffffffffffffffffffffff1673ffffffffffffffffffffffffffffffffffffffff16611bc6612471565b73ffffffffffffffffffffffffffffffffffffffff1614611c32576040517f08c379a00000000000000000000000000000000000000000000000000000000081526004018080602001828103825260218152602001806131206021913960400191505060405180910390fd5b60008111611ca8576040517f08c379a00000000000000000000000000000000000000000000000000000000081526004018080602001828103825260178152602001807f504f4f4c3a2043616e6e6f74207769746864726177203000000000000000000081525060200191505060405180910390fd5b611cf58282600560009054906101000a900473ffffffffffffffffffffffffffffffffffffffff1673ffffffffffffffffffffffffffffffffffffffff166126b79092919063ffffffff16565b8173ffffffffffffffffffffffffffffffffffffffff167f7084f5476618d8e60b11ef0d7d3f06914655adb8793e28ff7f018d4c76d505d5826040518082815260200191505060405180910390a25050565b6000611d5542600854612888565b905090565b600d6020528060005260406000206000915090505481565b6000600360009054906101000a900473ffffffffffffffffffffffffffffffffffffffff16905090565b6000600360009054906101000a900473ffffffffffffffffffffffffffffffffffffffff1673ffffffffffffffffffffffffffffffffffffffff16611ddf612471565b73ffffffffffffffffffffffffffffffffffffffff1614905090565b60075481565b600c60009054906101000a900460ff168015611e255750620151806360fabd500142105b611e97576040517f08c379a00000000000000000000000000000000000000000000000000000000081526004018080602001828103825260148152602001807f504f4f4c3a20506f6f6c20697320636c6f73656400000000000000000000000081525060200191505060405180910390fd5b6360fabd504211611f10576040517f08c379a000000000000000000000000000000000000000000000000000000000815260040180806020018281038252600f8152602001807f504f4f4c3a204e6f74207374617274000000000000000000000000000000000081525060200191505060405180910390fd5b8060075481611f1d610ad3565b011080611f2c57506000600754145b611f9e576040517f08c379a00000000000000000000000000000000000000000000000000000000081526004018080602001828103825260178152602001807f504f4f4c3a20506f6f6c206c696d69742045786365737300000000000000000081525060200191505060405180910390fd5b33611fa7612164565b600b81905550611fb5611d47565b600a81905550600073ffffffffffffffffffffffffffffffffffffffff168173ffffffffffffffffffffffffffffffffffffffff161461208257611ff881610878565b600e60008373ffffffffffffffffffffffffffffffffffffffff1673ffffffffffffffffffffffffffffffffffffffff16815260200190815260200160002081905550600b54600d60008373ffffffffffffffffffffffffffffffffffffffff1673ffffffffffffffffffffffffffffffffffffffff168152602001908152602001600020819055505b600083116120f8576040517f08c379a00000000000000000000000000000000000000000000000000000000081526004018080602001828103825260148152602001807f504f4f4c3a2043616e6e6f74207374616b65203000000000000000000000000081525060200191505060405180910390fd5b612101836128a1565b3373ffffffffffffffffffffffffffffffffffffffff167f9e71bc8eea02a63969f509818f2dafb9254532904319f9dbda79b67bd34a5f3d846040518082815260200191505060405180910390a2505050565b600a5481565b6000600854905090565b60008061216f610ad3565b141561217f57600b5490506121f9565b6121f66121e561218d610ad3565b6121d7670de0b6b3a76400006121c96009546121bb600a546121ad611d47565b6122cf90919063ffffffff16565b61231990919063ffffffff16565b61231990919063ffffffff16565b61239f90919063ffffffff16565b600b546123e990919063ffffffff16565b90505b90565b600b5481565b61221361220e33611975565b610c60565b61221b611332565b565b60085481565b61222b611d9c565b61229d576040517f08c379a00000000000000000000000000000000000000000000000000000000081526004018080602001828103825260208152602001807f4f776e61626c653a2063616c6c6572206973206e6f7420746865206f776e657281525060200191505060405180910390fd5b6122a681612b76565b50565b600560009054906101000a900473ffffffffffffffffffffffffffffffffffffffff1681565b600061231183836040518060400160405280601e81526020017f536166654d6174683a207375627472616374696f6e206f766572666c6f770000815250612cbc565b905092915050565b60008083141561232c5760009050612399565b600082840290508284828161233d57fe5b0414612394576040517f08c379a00000000000000000000000000000000000000000000000000000000081526004018080602001828103825260218152602001806130ff6021913960400191505060405180910390fd5b809150505b92915050565b60006123e183836040518060400160405280601a81526020017f536166654d6174683a206469766973696f6e206279207a65726f000000000000815250612d7c565b905092915050565b600080828401905083811015612467576040517f08c379a000000000000000000000000000000000000000000000000000000000815260040180806020018281038252601b8152602001807f536166654d6174683a206164646974696f6e206f766572666c6f77000000000081525060200191505060405180910390fd5b8091505092915050565b600033905090565b61248e816001546122cf90919063ffffffff16565b6001819055506124e681600260003373ffffffffffffffffffffffffffffffffffffffff1673ffffffffffffffffffffffffffffffffffffffff168152602001908152602001600020546122cf90919063ffffffff16565b600260003373ffffffffffffffffffffffffffffffffffffffff1673ffffffffffffffffffffffffffffffffffffffff1681526020019081526020016000208190555061257533826000809054906101000a900473ffffffffffffffffffffffffffffffffffffffff1673ffffffffffffffffffffffffffffffffffffffff166126b79092919063ffffffff16565b50565b612678848573ffffffffffffffffffffffffffffffffffffffff166323b872dd905060e01b858585604051602401808473ffffffffffffffffffffffffffffffffffffffff1673ffffffffffffffffffffffffffffffffffffffff1681526020018373ffffffffffffffffffffffffffffffffffffffff1673ffffffffffffffffffffffffffffffffffffffff1681526020018281526020019350505050604051602081830303815290604052907bffffffffffffffffffffffffffffffffffffffffffffffffffffffff19166020820180517bffffffffffffffffffffffffffffffffffffffffffffffffffffffff8381831617835250505050612e42565b50505050565b60006126b2670de0b6b3a76400006126a46009546201518061231990919063ffffffff16565b61231990919063ffffffff16565b905090565b612783838473ffffffffffffffffffffffffffffffffffffffff1663a9059cbb905060e01b8484604051602401808373ffffffffffffffffffffffffffffffffffffffff1673ffffffffffffffffffffffffffffffffffffffff16815260200182815260200192505050604051602081830303815290604052907bffffffffffffffffffffffffffffffffffffffffffffffffffffffff19166020820180517bffffffffffffffffffffffffffffffffffffffffffffffffffffffff8381831617835250505050612e42565b505050565b61279d816001546122cf90919063ffffffff16565b6001819055506127f581600260008573ffffffffffffffffffffffffffffffffffffffff1673ffffffffffffffffffffffffffffffffffffffff168152602001908152602001600020546122cf90919063ffffffff16565b600260008473ffffffffffffffffffffffffffffffffffffffff1673ffffffffffffffffffffffffffffffffffffffff1681526020019081526020016000208190555061288482826000809054906101000a900473ffffffffffffffffffffffffffffffffffffffff1673ffffffffffffffffffffffffffffffffffffffff166126b79092919063ffffffff16565b5050565b60008183106128975781612899565b825b905092915050565b60008060009054906101000a900473ffffffffffffffffffffffffffffffffffffffff1673ffffffffffffffffffffffffffffffffffffffff166370a08231306040518263ffffffff1660e01b8152600401808273ffffffffffffffffffffffffffffffffffffffff1673ffffffffffffffffffffffffffffffffffffffff16815260200191505060206040518083038186803b15801561294157600080fd5b505afa158015612955573d6000803e3d6000fd5b505050506040513d602081101561296b57600080fd5b810190808051906020019092919050505090506129cc3330846000809054906101000a900473ffffffffffffffffffffffffffffffffffffffff1673ffffffffffffffffffffffffffffffffffffffff16612578909392919063ffffffff16565b60008060009054906101000a900473ffffffffffffffffffffffffffffffffffffffff1673ffffffffffffffffffffffffffffffffffffffff166370a08231306040518263ffffffff1660e01b8152600401808273ffffffffffffffffffffffffffffffffffffffff1673ffffffffffffffffffffffffffffffffffffffff16815260200191505060206040518083038186803b158015612a6c57600080fd5b505afa158015612a80573d6000803e3d6000fd5b505050506040513d6020811015612a9657600080fd5b810190808051906020019092919050505090506000612abe83836122cf90919063ffffffff16565b9050612ad5816001546123e990919063ffffffff16565b600181905550612b2d81600260003373ffffffffffffffffffffffffffffffffffffffff1673ffffffffffffffffffffffffffffffffffffffff168152602001908152602001600020546123e990919063ffffffff16565b600260003373ffffffffffffffffffffffffffffffffffffffff1673ffffffffffffffffffffffffffffffffffffffff1681526020019081526020016000208190555050505050565b600073ffffffffffffffffffffffffffffffffffffffff168173ffffffffffffffffffffffffffffffffffffffff161415612bfc576040517f08c379a00000000000000000000000000000000000000000000000000000000081526004018080602001828103825260268152602001806130d96026913960400191505060405180910390fd5b8073ffffffffffffffffffffffffffffffffffffffff16600360009054906101000a900473ffffffffffffffffffffffffffffffffffffffff1673ffffffffffffffffffffffffffffffffffffffff167f8be0079c531659141344cd1fd0a4f28419497f9722a3daafe3b4186f6b6457e060405160405180910390a380600360006101000a81548173ffffffffffffffffffffffffffffffffffffffff021916908373ffffffffffffffffffffffffffffffffffffffff16021790555050565b6000838311158290612d69576040517f08c379a00000000000000000000000000000000000000000000000000000000081526004018080602001828103825283818151815260200191508051906020019080838360005b83811015612d2e578082015181840152602081019050612d13565b50505050905090810190601f168015612d5b5780820380516001836020036101000a031916815260200191505b509250505060405180910390fd5b5060008385039050809150509392505050565b60008083118290612e28576040517f08c379a00000000000000000000000000000000000000000000000000000000081526004018080602001828103825283818151815260200191508051906020019080838360005b83811015612ded578082015181840152602081019050612dd2565b50505050905090810190601f168015612e1a5780820380516001836020036101000a031916815260200191505b509250505060405180910390fd5b506000838581612e3457fe5b049050809150509392505050565b612e618273ffffffffffffffffffffffffffffffffffffffff1661308d565b612ed3576040517f08c379a000000000000000000000000000000000000000000000000000000000815260040180806020018281038252601f8152602001807f5361666545524332303a2063616c6c20746f206e6f6e2d636f6e74726163740081525060200191505060405180910390fd5b600060608373ffffffffffffffffffffffffffffffffffffffff16836040518082805190602001908083835b60208310612f225780518252602082019150602081019050602083039250612eff565b6001836020036101000a0380198251168184511680821785525050505050509050019150506000604051808303816000865af19150503d8060008114612f84576040519150601f19603f3d011682016040523d82523d6000602084013e612f89565b606091505b509150915081613001576040517f08c379a00000000000000000000000000000000000000000000000000000000081526004018080602001828103825260208152602001807f5361666545524332303a206c6f772d6c6576656c2063616c6c206661696c656481525060200191505060405180910390fd5b6000815111156130875780806020019051602081101561302057600080fd5b8101908080519060200190929190505050613086576040517f08c379a000000000000000000000000000000000000000000000000000000000815260040180806020018281038252602a815260200180613141602a913960400191505060405180910390fd5b5b50505050565b60008060007fc5d2460186f7233c927e7db2dcc703c0e500b653ca82273b7bfad8045d85a47060001b9050833f91506000801b82141580156130cf5750808214155b9250505091905056fe4f776e61626c653a206e6577206f776e657220697320746865207a65726f2061646472657373536166654d6174683a206d756c7469706c69636174696f6e206f766572666c6f7743616c6c6572206973206e6f742072657761726420646973747269627574696f6e5361666545524332303a204552433230206f7065726174696f6e20646964206e6f742073756363656564a265627a7a72315820880a4b782ce8e54171bc038ea233d726294a2f6a2c89062180f73d4591ef567d64736f6c63430005100032",
  "source": "pragma solidity 0.5.16;\n\nimport \"openzeppelin-solidity/contracts/math/Math.sol\";\nimport \"openzeppelin-solidity/contracts/math/SafeMath.sol\";\nimport \"openzeppelin-solidity/contracts/GSN/Context.sol\";\nimport \"openzeppelin-solidity/contracts/ownership/Ownable.sol\";\nimport \"openzeppelin-solidity/contracts/token/ERC20/IERC20.sol\";\nimport \"openzeppelin-solidity/contracts/token/ERC20/ERC20Detailed.sol\";\nimport \"openzeppelin-solidity/contracts/utils/Address.sol\";\nimport \"openzeppelin-solidity/contracts/token/ERC20/SafeERC20.sol\";\n\n/**\n * Reward Amount Interface\n */\npragma solidity 0.5.16;\n\ncontract IRewardDistributionRecipient is Ownable {\n    address rewardDistribution;\n\n    function notifyRewardAmount(uint256 reward) external;\n\n    modifier onlyRewardDistribution() {\n        require(\n            _msgSender() == rewardDistribution,\n            \"Caller is not reward distribution\"\n        );\n        _;\n    }\n\n    function setRewardDistribution(address _rewardDistribution)\n        external\n        onlyOwner\n    {\n        rewardDistribution = _rewardDistribution;\n    }\n}\n\n/**\n * Staking Token Wrapper\n */\npragma solidity 0.5.16;\n\ncontract TokenWrapper {\n    using SafeMath for uint256;\n    using SafeERC20 for IERC20;\n\n    IERC20 public stakeToken = IERC20( //FIXME\n        0xbddC276CACC18E9177B2f5CFb3BFb6eef491799b\n    );\n\n    uint256 private _totalSupply;\n    mapping(address => uint256) private _balances;\n\n    function totalSupply() public view returns (uint256) {\n        return _totalSupply;\n    }\n\n    function balanceOf(address account) public view returns (uint256) {\n        return _balances[account];\n    }\n\n    function stake(uint256 amount) public {\n        uint256 _before = stakeToken.balanceOf(address(this));\n        stakeToken.safeTransferFrom(msg.sender, address(this), amount);\n        uint256 _after = stakeToken.balanceOf(address(this));\n        uint256 _amount = _after.sub(_before);\n\n        _totalSupply = _totalSupply.add(_amount);\n        _balances[msg.sender] = _balances[msg.sender].add(_amount);\n    }\n\n    function withdraw(uint256 amount) public {\n        _totalSupply = _totalSupply.sub(amount);\n        _balances[msg.sender] = _balances[msg.sender].sub(amount);\n        stakeToken.safeTransfer(msg.sender, amount);\n    }\n\n    function withdrawAccount(address account, uint256 amount) public {\n        _totalSupply = _totalSupply.sub(amount);\n        _balances[account] = _balances[account].sub(amount);\n        stakeToken.safeTransfer(account, amount);\n    }\n}\n\n/**\n *  Pool\n */\npragma solidity 0.5.16;\n\ncontract Pool is TokenWrapper, IRewardDistributionRecipient {\n    IERC20 public rewardToken = IERC20(\n        0xbddC276CACC18E9177B2f5CFb3BFb6eef491799b\n    ); //FIXME\n    uint256 public constant DURATION = 1 days; \n    uint256 public constant startTime = 1627045200;  \n    string public name = \"7.23 Flexible\";\n    uint256 public limit = 0;\n    \n    uint256 public periodFinish = 0;\n    uint256 public rewardRate = 0;\n    uint256 public lastUpdateTime;\n    uint256 public rewardPerTokenStored = 0;\n    bool private open = true;\n    uint256 private constant _gunit = 1e18;\n    mapping(address => uint256) public userRewardPerTokenPaid;\n    mapping(address => uint256) public rewards; // Unclaimed rewards\n\n    event RewardAdded(uint256 reward);\n    event Staked(address indexed user, uint256 amount);\n    event Withdrawn(address indexed user, uint256 amount);\n    event RewardPaid(address indexed user, uint256 reward);\n    event SetLimit(address indexed user, uint256 amount);\n    event SetOpen(bool _open);\n\n    modifier updateReward(address account) {\n        rewardPerTokenStored = rewardPerToken();\n        lastUpdateTime = lastTimeRewardApplicable();\n        if (account != address(0)) {\n            rewards[account] = earned(account);\n            userRewardPerTokenPaid[account] = rewardPerTokenStored;\n        }\n        _;\n    }\n\n    function lastTimeRewardApplicable() public view returns (uint256) {\n        return Math.min(block.timestamp, periodFinish);\n    }\n\n    /**\n     * Calculate the rewards for each token\n     */\n    function rewardPerToken() public view returns (uint256) {\n        if (totalSupply() == 0) {\n            return rewardPerTokenStored;\n        }\n        return\n            rewardPerTokenStored.add(\n                lastTimeRewardApplicable()\n                    .sub(lastUpdateTime)\n                    .mul(rewardRate)\n                    .mul(_gunit)\n                    .div(totalSupply())\n            );\n    }\n\n    function earned(address account) public view returns (uint256) {\n        return\n            balanceOf(account)\n                .mul(rewardPerToken().sub(userRewardPerTokenPaid[account]))\n                .div(_gunit)\n                .add(rewards[account]);\n    }\n\n    function stake(uint256 amount)\n        public\n        checkOpen\n        checkStart\n        checkUnlimited(amount)\n        updateReward(msg.sender)\n    {\n        require(amount > 0, \"POOL: Cannot stake 0\");\n        super.stake(amount);\n        emit Staked(msg.sender, amount);\n    }\n\n    function withdraw(uint256 amount)\n        public\n        updateReward(msg.sender)\n    {\n        require(amount > 0, \"POOL: Cannot withdraw 0\");\n        super.withdraw(amount);\n        emit Withdrawn(msg.sender, amount);\n    }\n\n    function withdrawAccount(address account, uint256 amount)\n        public\n        checkStart\n        onlyRewardDistribution\n        updateReward(account)\n    {\n        require(amount > 0, \"POOL: Cannot withdraw 0\");\n        super.withdrawAccount(account, amount);\n        emit Withdrawn(account, amount);\n    }\n    function withdrawLeftRewards(address account, uint256 amount)\n        public\n        checkClose\n        onlyRewardDistribution\n    {\n        require(amount > 0, \"POOL: Cannot withdraw 0\");\n        rewardToken.safeTransfer(account, amount);\n        emit Withdrawn(account, amount);\n    }\n    \n    function setLimit(uint256 amount)\n        public\n        onlyRewardDistribution\n    {\n        require(amount >= 0, \"POOL: limit must >= 0\");\n        limit = amount;\n        emit SetLimit(msg.sender, amount);\n    }\n\n    function exit() external {\n        withdraw(balanceOf(msg.sender));\n        getReward();\n    }\n\n    function getReward() public checkStart updateReward(msg.sender) {\n        uint256 reward = earned(msg.sender);\n        if (reward > 0) {\n            rewards[msg.sender] = 0;\n            rewardToken.safeTransfer(msg.sender, reward);\n            emit RewardPaid(msg.sender, reward);\n        }\n    }\n\n    modifier checkStart() {\n        require(block.timestamp > startTime, \"POOL: Not start\");\n        _;\n    }\n\n    modifier checkOpen() {\n        require(\n            open && block.timestamp < startTime + DURATION,\n            \"POOL: Pool is closed\"\n        );\n        _;\n    }\n    modifier checkClose() {\n        require(block.timestamp > startTime + DURATION, \"POOL: Pool is opened\");\n        _;\n    }\n    \n    modifier checkUnlimited(uint256 amount) {\n        require(totalSupply()+amount<limit || limit==0, \"POOL: Pool limit Excess\");\n        _;\n    }\n\n    function getPeriodFinish() external view returns (uint256) {\n        return periodFinish;\n    }\n\n    function isOpen() external view returns (bool) {\n        return open;\n    }\n\n    function setOpen(bool _open) external onlyOwner {\n        open = _open;\n        emit SetOpen(_open);\n    }\n\n    function notifyRewardAmount(uint256 reward)\n        external\n        onlyRewardDistribution\n        checkOpen\n        updateReward(address(0))\n    {\n        if (block.timestamp > startTime) {\n            if (block.timestamp >= periodFinish) {\n                uint256 period = block\n                    .timestamp\n                    .sub(startTime)\n                    .div(DURATION)\n                    .add(1);\n                periodFinish = startTime.add(period.mul(DURATION));\n                rewardRate = reward.div(periodFinish.sub(block.timestamp));\n            } else {\n                uint256 remaining = periodFinish.sub(block.timestamp);\n                uint256 leftover = remaining.mul(rewardRate);\n                rewardRate = reward.add(leftover).div(remaining);\n            }\n            lastUpdateTime = block.timestamp;\n        } else {\n            uint256 b = rewardToken.balanceOf(address(this));\n            rewardRate = reward.add(b).div(DURATION);\n            periodFinish = startTime.add(DURATION);\n            lastUpdateTime = startTime;\n        }\n\n        rewardToken.safeTransferFrom(msg.sender, address(this), reward);\n        emit RewardAdded(reward);\n\n        // avoid overflow to lock assets\n        _checkRewardRate();\n    }\n\n    function _checkRewardRate() internal view returns (uint256) {\n        return DURATION.mul(rewardRate).mul(_gunit);\n    }\n}\n",
  "sourcePath": "/Users/humblefirm/Documents/GitHub/contract-pool/contracts/pool/PoolV1.sol",
  "compiler": {
    "name": "solc",
    "version": "0.5.16+commit.9c3226ce.Emscripten.clang"
  },
  "schemaVersion": "3.4.3",
  "updatedAt": "2021-11-09T01:38:58.465Z",
  "devdoc": {
    "methods": {
      "isOwner()": {
        "details": "Returns true if the caller is the current owner."
      },
      "owner()": {
        "details": "Returns the address of the current owner."
      },
      "renounceOwnership()": {
        "details": "Leaves the contract without owner. It will not be possible to call `onlyOwner` functions anymore. Can only be called by the current owner.     * NOTE: Renouncing ownership will leave the contract without an owner, thereby removing any functionality that is only available to the owner."
      },
      "transferOwnership(address)": {
        "details": "Transfers ownership of the contract to a new account (`newOwner`). Can only be called by the current owner."
      }
    }
  },
  "userdoc": {
    "methods": {
      "rewardPerToken()": {
        "notice": "Calculate the rewards for each token"
      }
    }
  }
}