{
  "contractName": "PoolV1",
  "abi": [
    {
      "inputs": [
        {
          "internalType": "string",
          "name": "name",
          "type": "string"
        }
      ],
      "payable": false,
      "stateMutability": "nonpayable",
      "type": "constructor"
    },
    {
      "anonymous": false,
      "inputs": [
        {
          "indexed": true,
          "internalType": "address",
          "name": "owner",
          "type": "address"
        },
        {
          "indexed": true,
          "internalType": "address",
          "name": "spender",
          "type": "address"
        },
        {
          "indexed": false,
          "internalType": "uint256",
          "name": "value",
          "type": "uint256"
        }
      ],
      "name": "Approval",
      "type": "event"
    },
    {
      "anonymous": false,
      "inputs": [
        {
          "indexed": true,
          "internalType": "address",
          "name": "previousOwner",
          "type": "address"
        },
        {
          "indexed": true,
          "internalType": "address",
          "name": "newOwner",
          "type": "address"
        }
      ],
      "name": "OwnershipTransferred",
      "type": "event"
    },
    {
      "anonymous": false,
      "inputs": [
        {
          "indexed": false,
          "internalType": "uint256",
          "name": "reward",
          "type": "uint256"
        }
      ],
      "name": "RewardAdded",
      "type": "event"
    },
    {
      "anonymous": false,
      "inputs": [
        {
          "indexed": true,
          "internalType": "address",
          "name": "user",
          "type": "address"
        },
        {
          "indexed": false,
          "internalType": "uint256",
          "name": "reward",
          "type": "uint256"
        }
      ],
      "name": "RewardPaid",
      "type": "event"
    },
    {
      "anonymous": false,
      "inputs": [
        {
          "indexed": true,
          "internalType": "address",
          "name": "user",
          "type": "address"
        },
        {
          "indexed": false,
          "internalType": "uint256",
          "name": "amount",
          "type": "uint256"
        }
      ],
      "name": "SetLimit",
      "type": "event"
    },
    {
      "anonymous": false,
      "inputs": [
        {
          "indexed": false,
          "internalType": "bool",
          "name": "_open",
          "type": "bool"
        }
      ],
      "name": "SetOpen",
      "type": "event"
    },
    {
      "anonymous": false,
      "inputs": [
        {
          "indexed": true,
          "internalType": "address",
          "name": "user",
          "type": "address"
        },
        {
          "indexed": false,
          "internalType": "uint256",
          "name": "amount",
          "type": "uint256"
        }
      ],
      "name": "Staked",
      "type": "event"
    },
    {
      "anonymous": false,
      "inputs": [
        {
          "indexed": true,
          "internalType": "address",
          "name": "from",
          "type": "address"
        },
        {
          "indexed": true,
          "internalType": "address",
          "name": "to",
          "type": "address"
        },
        {
          "indexed": false,
          "internalType": "uint256",
          "name": "value",
          "type": "uint256"
        }
      ],
      "name": "Transfer",
      "type": "event"
    },
    {
      "anonymous": false,
      "inputs": [
        {
          "indexed": true,
          "internalType": "address",
          "name": "user",
          "type": "address"
        },
        {
          "indexed": false,
          "internalType": "uint256",
          "name": "amount",
          "type": "uint256"
        }
      ],
      "name": "Withdrawn",
      "type": "event"
    },
    {
      "constant": true,
      "inputs": [],
      "name": "DURATION",
      "outputs": [
        {
          "internalType": "uint256",
          "name": "",
          "type": "uint256"
        }
      ],
      "payable": false,
      "stateMutability": "view",
      "type": "function"
    },
    {
      "constant": true,
      "inputs": [
        {
          "internalType": "address",
          "name": "owner",
          "type": "address"
        },
        {
          "internalType": "address",
          "name": "spender",
          "type": "address"
        }
      ],
      "name": "allowance",
      "outputs": [
        {
          "internalType": "uint256",
          "name": "",
          "type": "uint256"
        }
      ],
      "payable": false,
      "stateMutability": "view",
      "type": "function"
    },
    {
      "constant": false,
      "inputs": [
        {
          "internalType": "address",
          "name": "spender",
          "type": "address"
        },
        {
          "internalType": "uint256",
          "name": "amount",
          "type": "uint256"
        }
      ],
      "name": "approve",
      "outputs": [
        {
          "internalType": "bool",
          "name": "",
          "type": "bool"
        }
      ],
      "payable": false,
      "stateMutability": "nonpayable",
      "type": "function"
    },
    {
      "constant": true,
      "inputs": [
        {
          "internalType": "address",
          "name": "account",
          "type": "address"
        }
      ],
      "name": "balanceOf",
      "outputs": [
        {
          "internalType": "uint256",
          "name": "",
          "type": "uint256"
        }
      ],
      "payable": false,
      "stateMutability": "view",
      "type": "function"
    },
    {
      "constant": true,
      "inputs": [],
      "name": "decimals",
      "outputs": [
        {
          "internalType": "uint8",
          "name": "",
          "type": "uint8"
        }
      ],
      "payable": false,
      "stateMutability": "view",
      "type": "function"
    },
    {
      "constant": false,
      "inputs": [
        {
          "internalType": "address",
          "name": "spender",
          "type": "address"
        },
        {
          "internalType": "uint256",
          "name": "subtractedValue",
          "type": "uint256"
        }
      ],
      "name": "decreaseAllowance",
      "outputs": [
        {
          "internalType": "bool",
          "name": "",
          "type": "bool"
        }
      ],
      "payable": false,
      "stateMutability": "nonpayable",
      "type": "function"
    },
    {
      "constant": false,
      "inputs": [
        {
          "internalType": "address",
          "name": "spender",
          "type": "address"
        },
        {
          "internalType": "uint256",
          "name": "addedValue",
          "type": "uint256"
        }
      ],
      "name": "increaseAllowance",
      "outputs": [
        {
          "internalType": "bool",
          "name": "",
          "type": "bool"
        }
      ],
      "payable": false,
      "stateMutability": "nonpayable",
      "type": "function"
    },
    {
      "constant": true,
      "inputs": [],
      "name": "isOwner",
      "outputs": [
        {
          "internalType": "bool",
          "name": "",
          "type": "bool"
        }
      ],
      "payable": false,
      "stateMutability": "view",
      "type": "function"
    },
    {
      "constant": true,
      "inputs": [],
      "name": "lastUpdateTime",
      "outputs": [
        {
          "internalType": "uint256",
          "name": "",
          "type": "uint256"
        }
      ],
      "payable": false,
      "stateMutability": "view",
      "type": "function"
    },
    {
      "constant": true,
      "inputs": [],
      "name": "limit",
      "outputs": [
        {
          "internalType": "uint256",
          "name": "",
          "type": "uint256"
        }
      ],
      "payable": false,
      "stateMutability": "view",
      "type": "function"
    },
    {
      "constant": true,
      "inputs": [],
      "name": "name",
      "outputs": [
        {
          "internalType": "string",
          "name": "",
          "type": "string"
        }
      ],
      "payable": false,
      "stateMutability": "view",
      "type": "function"
    },
    {
      "constant": true,
      "inputs": [],
      "name": "owner",
      "outputs": [
        {
          "internalType": "address",
          "name": "",
          "type": "address"
        }
      ],
      "payable": false,
      "stateMutability": "view",
      "type": "function"
    },
    {
      "constant": true,
      "inputs": [],
      "name": "periodFinish",
      "outputs": [
        {
          "internalType": "uint256",
          "name": "",
          "type": "uint256"
        }
      ],
      "payable": false,
      "stateMutability": "view",
      "type": "function"
    },
    {
      "constant": false,
      "inputs": [],
      "name": "renounceOwnership",
      "outputs": [],
      "payable": false,
      "stateMutability": "nonpayable",
      "type": "function"
    },
    {
      "constant": true,
      "inputs": [],
      "name": "rewardPerTokenStored",
      "outputs": [
        {
          "internalType": "uint256",
          "name": "",
          "type": "uint256"
        }
      ],
      "payable": false,
      "stateMutability": "view",
      "type": "function"
    },
    {
      "constant": true,
      "inputs": [],
      "name": "rewardRate",
      "outputs": [
        {
          "internalType": "uint256",
          "name": "",
          "type": "uint256"
        }
      ],
      "payable": false,
      "stateMutability": "view",
      "type": "function"
    },
    {
      "constant": true,
      "inputs": [],
      "name": "rewardToken",
      "outputs": [
        {
          "internalType": "contract IERC20",
          "name": "",
          "type": "address"
        }
      ],
      "payable": false,
      "stateMutability": "view",
      "type": "function"
    },
    {
      "constant": true,
      "inputs": [
        {
          "internalType": "address",
          "name": "",
          "type": "address"
        }
      ],
      "name": "rewards",
      "outputs": [
        {
          "internalType": "uint256",
          "name": "",
          "type": "uint256"
        }
      ],
      "payable": false,
      "stateMutability": "view",
      "type": "function"
    },
    {
      "constant": false,
      "inputs": [
        {
          "internalType": "address",
          "name": "_rewardDistribution",
          "type": "address"
        }
      ],
      "name": "setRewardDistribution",
      "outputs": [],
      "payable": false,
      "stateMutability": "nonpayable",
      "type": "function"
    },
    {
      "constant": true,
      "inputs": [],
      "name": "stakeToken",
      "outputs": [
        {
          "internalType": "contract IERC20",
          "name": "",
          "type": "address"
        }
      ],
      "payable": false,
      "stateMutability": "view",
      "type": "function"
    },
    {
      "constant": true,
      "inputs": [],
      "name": "startTime",
      "outputs": [
        {
          "internalType": "uint256",
          "name": "",
          "type": "uint256"
        }
      ],
      "payable": false,
      "stateMutability": "view",
      "type": "function"
    },
    {
      "constant": true,
      "inputs": [],
      "name": "symbol",
      "outputs": [
        {
          "internalType": "string",
          "name": "",
          "type": "string"
        }
      ],
      "payable": false,
      "stateMutability": "view",
      "type": "function"
    },
    {
      "constant": true,
      "inputs": [],
      "name": "totalSupply",
      "outputs": [
        {
          "internalType": "uint256",
          "name": "",
          "type": "uint256"
        }
      ],
      "payable": false,
      "stateMutability": "view",
      "type": "function"
    },
    {
      "constant": false,
      "inputs": [
        {
          "internalType": "address",
          "name": "recipient",
          "type": "address"
        },
        {
          "internalType": "uint256",
          "name": "amount",
          "type": "uint256"
        }
      ],
      "name": "transfer",
      "outputs": [
        {
          "internalType": "bool",
          "name": "",
          "type": "bool"
        }
      ],
      "payable": false,
      "stateMutability": "nonpayable",
      "type": "function"
    },
    {
      "constant": false,
      "inputs": [
        {
          "internalType": "address",
          "name": "sender",
          "type": "address"
        },
        {
          "internalType": "address",
          "name": "recipient",
          "type": "address"
        },
        {
          "internalType": "uint256",
          "name": "amount",
          "type": "uint256"
        }
      ],
      "name": "transferFrom",
      "outputs": [
        {
          "internalType": "bool",
          "name": "",
          "type": "bool"
        }
      ],
      "payable": false,
      "stateMutability": "nonpayable",
      "type": "function"
    },
    {
      "constant": false,
      "inputs": [
        {
          "internalType": "address",
          "name": "newOwner",
          "type": "address"
        }
      ],
      "name": "transferOwnership",
      "outputs": [],
      "payable": false,
      "stateMutability": "nonpayable",
      "type": "function"
    },
    {
      "constant": true,
      "inputs": [
        {
          "internalType": "address",
          "name": "",
          "type": "address"
        }
      ],
      "name": "userRewardPerTokenPaid",
      "outputs": [
        {
          "internalType": "uint256",
          "name": "",
          "type": "uint256"
        }
      ],
      "payable": false,
      "stateMutability": "view",
      "type": "function"
    },
    {
      "constant": true,
      "inputs": [],
      "name": "lastTimeRewardApplicable",
      "outputs": [
        {
          "internalType": "uint256",
          "name": "",
          "type": "uint256"
        }
      ],
      "payable": false,
      "stateMutability": "view",
      "type": "function"
    },
    {
      "constant": true,
      "inputs": [],
      "name": "rewardPerToken",
      "outputs": [
        {
          "internalType": "uint256",
          "name": "",
          "type": "uint256"
        }
      ],
      "payable": false,
      "stateMutability": "view",
      "type": "function"
    },
    {
      "constant": true,
      "inputs": [
        {
          "internalType": "address",
          "name": "account",
          "type": "address"
        }
      ],
      "name": "earned",
      "outputs": [
        {
          "internalType": "uint256",
          "name": "",
          "type": "uint256"
        }
      ],
      "payable": false,
      "stateMutability": "view",
      "type": "function"
    },
    {
      "constant": false,
      "inputs": [
        {
          "internalType": "uint256",
          "name": "amount",
          "type": "uint256"
        }
      ],
      "name": "stake",
      "outputs": [],
      "payable": false,
      "stateMutability": "nonpayable",
      "type": "function"
    },
    {
      "constant": false,
      "inputs": [
        {
          "internalType": "uint256",
          "name": "amount",
          "type": "uint256"
        }
      ],
      "name": "withdraw",
      "outputs": [],
      "payable": false,
      "stateMutability": "nonpayable",
      "type": "function"
    },
    {
      "constant": false,
      "inputs": [
        {
          "internalType": "address",
          "name": "account",
          "type": "address"
        },
        {
          "internalType": "uint256",
          "name": "amount",
          "type": "uint256"
        }
      ],
      "name": "withdrawAccount",
      "outputs": [],
      "payable": false,
      "stateMutability": "nonpayable",
      "type": "function"
    },
    {
      "constant": false,
      "inputs": [
        {
          "internalType": "address",
          "name": "account",
          "type": "address"
        },
        {
          "internalType": "uint256",
          "name": "amount",
          "type": "uint256"
        }
      ],
      "name": "withdrawLeftRewards",
      "outputs": [],
      "payable": false,
      "stateMutability": "nonpayable",
      "type": "function"
    },
    {
      "constant": false,
      "inputs": [
        {
          "internalType": "uint256",
          "name": "amount",
          "type": "uint256"
        }
      ],
      "name": "setLimit",
      "outputs": [],
      "payable": false,
      "stateMutability": "nonpayable",
      "type": "function"
    },
    {
      "constant": false,
      "inputs": [],
      "name": "exit",
      "outputs": [],
      "payable": false,
      "stateMutability": "nonpayable",
      "type": "function"
    },
    {
      "constant": false,
      "inputs": [],
      "name": "getReward",
      "outputs": [],
      "payable": false,
      "stateMutability": "nonpayable",
      "type": "function"
    },
    {
      "constant": true,
      "inputs": [],
      "name": "getPeriodFinish",
      "outputs": [
        {
          "internalType": "uint256",
          "name": "",
          "type": "uint256"
        }
      ],
      "payable": false,
      "stateMutability": "view",
      "type": "function"
    },
    {
      "constant": true,
      "inputs": [],
      "name": "isOpen",
      "outputs": [
        {
          "internalType": "bool",
          "name": "",
          "type": "bool"
        }
      ],
      "payable": false,
      "stateMutability": "view",
      "type": "function"
    },
    {
      "constant": false,
      "inputs": [
        {
          "internalType": "bool",
          "name": "_open",
          "type": "bool"
        }
      ],
      "name": "setOpen",
      "outputs": [],
      "payable": false,
      "stateMutability": "nonpayable",
      "type": "function"
    },
    {
      "constant": false,
      "inputs": [
        {
          "internalType": "uint256",
          "name": "reward",
          "type": "uint256"
        }
      ],
      "name": "notifyRewardAmount",
      "outputs": [],
      "payable": false,
      "stateMutability": "nonpayable",
      "type": "function"
    }
  ],
  "bytecode": "0x608060405273bddc276cacc18e9177b2f5cfb3bfb6eef491799b600660006101000a81548173ffffffffffffffffffffffffffffffffffffffff021916908373ffffffffffffffffffffffffffffffffffffffff16021790555073bddc276cacc18e9177b2f5cfb3bfb6eef491799b600860006101000a81548173ffffffffffffffffffffffffffffffffffffffff021916908373ffffffffffffffffffffffffffffffffffffffff16021790555060006009556000600a556000600b556000600d556001600e60006101000a81548160ff021916908315150217905550348015620000ea57600080fd5b506040516200485138038062004851833981810160405260208110156200011057600080fd5b81019080805160405193929190846401000000008211156200013157600080fd5b838201915060208201858111156200014857600080fd5b82518660018202830111640100000000821117156200016657600080fd5b8083526020830192505050908051906020019080838360005b838110156200019c5780820151818401526020810190506200017f565b50505050905090810190601f168015620001ca5780820380516001836020036101000a031916815260200191505b50604052505050806040518060400160405280600781526020017f504f4f4c2d56320000000000000000000000000000000000000000000000000081525060128260039080519060200190620002229291906200059c565b5081600490805190602001906200023b9291906200059c565b5080600560006101000a81548160ff021916908360ff1602179055505050506200026a6200034160201b60201c565b600560016101000a81548173ffffffffffffffffffffffffffffffffffffffff021916908373ffffffffffffffffffffffffffffffffffffffff160217905550600560019054906101000a900473ffffffffffffffffffffffffffffffffffffffff1673ffffffffffffffffffffffffffffffffffffffff16600073ffffffffffffffffffffffffffffffffffffffff167f8be0079c531659141344cd1fd0a4f28419497f9722a3daafe3b4186f6b6457e060405160405180910390a36200033a3360006200034960201b60201c565b506200064b565b600033905090565b600073ffffffffffffffffffffffffffffffffffffffff168273ffffffffffffffffffffffffffffffffffffffff161415620003ed576040517f08c379a000000000000000000000000000000000000000000000000000000000815260040180806020018281038252601f8152602001807f45524332303a206d696e7420746f20746865207a65726f20616464726573730081525060200191505060405180910390fd5b62000409816002546200051360201b62002c4f1790919060201c565b60028190555062000467816000808573ffffffffffffffffffffffffffffffffffffffff1673ffffffffffffffffffffffffffffffffffffffff168152602001908152602001600020546200051360201b62002c4f1790919060201c565b6000808473ffffffffffffffffffffffffffffffffffffffff1673ffffffffffffffffffffffffffffffffffffffff168152602001908152602001600020819055508173ffffffffffffffffffffffffffffffffffffffff16600073ffffffffffffffffffffffffffffffffffffffff167fddf252ad1be2c89b69c2b068fc378daa952ba7f163c4a11628f55a4df523b3ef836040518082815260200191505060405180910390a35050565b60008082840190508381101562000592576040517f08c379a000000000000000000000000000000000000000000000000000000000815260040180806020018281038252601b8152602001807f536166654d6174683a206164646974696f6e206f766572666c6f77000000000081525060200191505060405180910390fd5b8091505092915050565b828054600181600116156101000203166002900490600052602060002090601f016020900481019282601f10620005df57805160ff191683800117855562000610565b8280016001018555821562000610579182015b828111156200060f578251825591602001919060010190620005f2565b5b5090506200061f919062000623565b5090565b6200064891905b80821115620006445760008160009055506001016200062a565b5090565b90565b6141f6806200065b6000396000f3fe608060405234801561001057600080fd5b50600436106102525760003560e01c806378e9792511610146578063a694fc3a116100c3578063dd62ed3e11610087578063dd62ed3e14610ac1578063df136d6514610b39578063e9fad8ee14610b57578063ebe2b12b14610b61578063f2fde38b14610b7f578063f7c618c114610bc357610252565b8063a694fc3a146109d3578063a9059cbb14610a01578063c8f33c9114610a67578063cb17d14f14610a85578063cd3daf9d14610aa357610252565b80638da5cb5b1161010a5780638da5cb5b146108605780638f32d59b146108aa57806395d89b41146108cc578063a457c2d71461094f578063a4d66daf146109b557610252565b806378e97925146107605780637b0a47ee1461077e5780637ce3dbe11461079c57806380faa57d146107ea5780638b8763471461080857610252565b8063313ce567116101d457806351ed6a301161019857806351ed6a3014610636578063631f509e146106805780636fdca5e0146106ce57806370a08231146106fe578063715018a61461075657610252565b8063313ce5671461055257806339509351146105765780633c6b16ab146105dc5780633d18b9121461060a57806347535d7b1461061457610252565b806318160ddd1161021b57806318160ddd146104345780631be052891461045257806323b872dd1461047057806327ea6f2b146104f65780632e1a7d4d1461052457610252565b80628cc2621461025757806306fdde03146102af5780630700037d14610332578063095ea7b31461038a5780630d68b761146103f0575b600080fd5b6102996004803603602081101561026d57600080fd5b81019080803573ffffffffffffffffffffffffffffffffffffffff169060200190929190505050610c0d565b6040518082815260200191505060405180910390f35b6102b7610cf4565b6040518080602001828103825283818151815260200191508051906020019080838360005b838110156102f75780820151818401526020810190506102dc565b50505050905090810190601f1680156103245780820380516001836020036101000a031916815260200191505b509250505060405180910390f35b6103746004803603602081101561034857600080fd5b81019080803573ffffffffffffffffffffffffffffffffffffffff169060200190929190505050610d96565b6040518082815260200191505060405180910390f35b6103d6600480360360408110156103a057600080fd5b81019080803573ffffffffffffffffffffffffffffffffffffffff16906020019092919080359060200190929190505050610dae565b604051808215151515815260200191505060405180910390f35b6104326004803603602081101561040657600080fd5b81019080803573ffffffffffffffffffffffffffffffffffffffff169060200190929190505050610dcc565b005b61043c610e8a565b6040518082815260200191505060405180910390f35b61045a610e94565b6040518082815260200191505060405180910390f35b6104dc6004803603606081101561048657600080fd5b81019080803573ffffffffffffffffffffffffffffffffffffffff169060200190929190803573ffffffffffffffffffffffffffffffffffffffff16906020019092919080359060200190929190505050610e9b565b604051808215151515815260200191505060405180910390f35b6105226004803603602081101561050c57600080fd5b8101908080359060200190929190505050610f74565b005b6105506004803603602081101561053a57600080fd5b81019080803590602001909291905050506110f0565b005b61055a6112a5565b604051808260ff1660ff16815260200191505060405180910390f35b6105c26004803603604081101561058c57600080fd5b81019080803573ffffffffffffffffffffffffffffffffffffffff169060200190929190803590602001909291905050506112bc565b604051808215151515815260200191505060405180910390f35b610608600480360360208110156105f257600080fd5b810190808035906020019092919050505061136f565b005b61061261188c565b005b61061c611ae4565b604051808215151515815260200191505060405180910390f35b61063e611afb565b604051808273ffffffffffffffffffffffffffffffffffffffff1673ffffffffffffffffffffffffffffffffffffffff16815260200191505060405180910390f35b6106cc6004803603604081101561069657600080fd5b81019080803573ffffffffffffffffffffffffffffffffffffffff16906020019092919080359060200190929190505050611b21565b005b6106fc600480360360208110156106e457600080fd5b81019080803515159060200190929190505050611ef6565b005b6107406004803603602081101561071457600080fd5b81019080803573ffffffffffffffffffffffffffffffffffffffff169060200190929190505050611fc8565b6040518082815260200191505060405180910390f35b61075e612010565b005b61076861214b565b6040518082815260200191505060405180910390f35b610786612153565b6040518082815260200191505060405180910390f35b6107e8600480360360408110156107b257600080fd5b81019080803573ffffffffffffffffffffffffffffffffffffffff16906020019092919080359060200190929190505050612159565b005b6107f2612399565b6040518082815260200191505060405180910390f35b61084a6004803603602081101561081e57600080fd5b81019080803573ffffffffffffffffffffffffffffffffffffffff1690602001909291905050506123ac565b6040518082815260200191505060405180910390f35b6108686123c4565b604051808273ffffffffffffffffffffffffffffffffffffffff1673ffffffffffffffffffffffffffffffffffffffff16815260200191505060405180910390f35b6108b26123ee565b604051808215151515815260200191505060405180910390f35b6108d461244d565b6040518080602001828103825283818151815260200191508051906020019080838360005b838110156109145780820151818401526020810190506108f9565b50505050905090810190601f1680156109415780820380516001836020036101000a031916815260200191505b509250505060405180910390f35b61099b6004803603604081101561096557600080fd5b81019080803573ffffffffffffffffffffffffffffffffffffffff169060200190929190803590602001909291905050506124ef565b604051808215151515815260200191505060405180910390f35b6109bd6125bc565b6040518082815260200191505060405180910390f35b6109ff600480360360208110156109e957600080fd5b81019080803590602001909291905050506125c2565b005b610a4d60048036036040811015610a1757600080fd5b81019080803573ffffffffffffffffffffffffffffffffffffffff16906020019092919080359060200190929190505050612915565b604051808215151515815260200191505060405180910390f35b610a6f612933565b6040518082815260200191505060405180910390f35b610a8d612939565b6040518082815260200191505060405180910390f35b610aab612943565b6040518082815260200191505060405180910390f35b610b2360048036036040811015610ad757600080fd5b81019080803573ffffffffffffffffffffffffffffffffffffffff169060200190929190803573ffffffffffffffffffffffffffffffffffffffff1690602001909291905050506129db565b6040518082815260200191505060405180910390f35b610b41612a62565b6040518082815260200191505060405180910390f35b610b5f612a68565b005b610b69612a83565b6040518082815260200191505060405180910390f35b610bc160048036036020811015610b9557600080fd5b81019080803573ffffffffffffffffffffffffffffffffffffffff169060200190929190505050612a89565b005b610bcb612b0f565b604051808273ffffffffffffffffffffffffffffffffffffffff1673ffffffffffffffffffffffffffffffffffffffff16815260200191505060405180910390f35b6000610ced601060008473ffffffffffffffffffffffffffffffffffffffff1673ffffffffffffffffffffffffffffffffffffffff16815260200190815260200160002054610cdf670de0b6b3a7640000610cd1610cba600f60008973ffffffffffffffffffffffffffffffffffffffff1673ffffffffffffffffffffffffffffffffffffffff16815260200190815260200160002054610cac612943565b612b3590919063ffffffff16565b610cc388611fc8565b612b7f90919063ffffffff16565b612c0590919063ffffffff16565b612c4f90919063ffffffff16565b9050919050565b606060038054600181600116156101000203166002900480601f016020809104026020016040519081016040528092919081815260200182805460018160011615610100020316600290048015610d8c5780601f10610d6157610100808354040283529160200191610d8c565b820191906000526020600020905b815481529060010190602001808311610d6f57829003601f168201915b5050505050905090565b60106020528060005260406000206000915090505481565b6000610dc2610dbb612cd7565b8484612cdf565b6001905092915050565b610dd46123ee565b610e46576040517f08c379a00000000000000000000000000000000000000000000000000000000081526004018080602001828103825260208152602001807f4f776e61626c653a2063616c6c6572206973206e6f7420746865206f776e657281525060200191505060405180910390fd5b80600760006101000a81548173ffffffffffffffffffffffffffffffffffffffff021916908373ffffffffffffffffffffffffffffffffffffffff16021790555050565b6000600254905090565b6201518081565b6000610ea8848484612ed6565b610f6984610eb4612cd7565b610f64856040518060600160405280602881526020016140c060289139600160008b73ffffffffffffffffffffffffffffffffffffffff1673ffffffffffffffffffffffffffffffffffffffff1681526020019081526020016000206000610f1a612cd7565b73ffffffffffffffffffffffffffffffffffffffff1673ffffffffffffffffffffffffffffffffffffffff1681526020019081526020016000205461318c9092919063ffffffff16565b612cdf565b600190509392505050565b600760009054906101000a900473ffffffffffffffffffffffffffffffffffffffff1673ffffffffffffffffffffffffffffffffffffffff16610fb5612cd7565b73ffffffffffffffffffffffffffffffffffffffff1614611021576040517f08c379a00000000000000000000000000000000000000000000000000000000081526004018080602001828103825260218152602001806140e86021913960400191505060405180910390fd5b6000811015611098576040517f08c379a00000000000000000000000000000000000000000000000000000000081526004018080602001828103825260158152602001807f504f4f4c3a206c696d6974206d757374203e3d2030000000000000000000000081525060200191505060405180910390fd5b806009819055503373ffffffffffffffffffffffffffffffffffffffff167f195f01c216465063f9e6a5cc900b834b284e36961065b3d5f63b115ecd88582a826040518082815260200191505060405180910390a250565b336110f9612943565b600d81905550611107612399565b600c81905550600073ffffffffffffffffffffffffffffffffffffffff168173ffffffffffffffffffffffffffffffffffffffff16146111d45761114a81610c0d565b601060008373ffffffffffffffffffffffffffffffffffffffff1673ffffffffffffffffffffffffffffffffffffffff16815260200190815260200160002081905550600d54600f60008373ffffffffffffffffffffffffffffffffffffffff1673ffffffffffffffffffffffffffffffffffffffff168152602001908152602001600020819055505b6000821161124a576040517f08c379a00000000000000000000000000000000000000000000000000000000081526004018080602001828103825260178152602001807f504f4f4c3a2043616e6e6f74207769746864726177203000000000000000000081525060200191505060405180910390fd5b6112538261324c565b3373ffffffffffffffffffffffffffffffffffffffff167f7084f5476618d8e60b11ef0d7d3f06914655adb8793e28ff7f018d4c76d505d5836040518082815260200191505060405180910390a25050565b6000600560009054906101000a900460ff16905090565b60006113656112c9612cd7565b8461136085600160006112da612cd7565b73ffffffffffffffffffffffffffffffffffffffff1673ffffffffffffffffffffffffffffffffffffffff16815260200190815260200160002060008973ffffffffffffffffffffffffffffffffffffffff1673ffffffffffffffffffffffffffffffffffffffff16815260200190815260200160002054612c4f90919063ffffffff16565b612cdf565b6001905092915050565b600760009054906101000a900473ffffffffffffffffffffffffffffffffffffffff1673ffffffffffffffffffffffffffffffffffffffff166113b0612cd7565b73ffffffffffffffffffffffffffffffffffffffff161461141c576040517f08c379a00000000000000000000000000000000000000000000000000000000081526004018080602001828103825260218152602001806140e86021913960400191505060405180910390fd5b600e60009054906101000a900460ff1680156114405750620151806360fabd500142105b6114b2576040517f08c379a00000000000000000000000000000000000000000000000000000000081526004018080602001828103825260148152602001807f504f4f4c3a20506f6f6c20697320636c6f73656400000000000000000000000081525060200191505060405180910390fd5b60006114bc612943565b600d819055506114ca612399565b600c81905550600073ffffffffffffffffffffffffffffffffffffffff168173ffffffffffffffffffffffffffffffffffffffff16146115975761150d81610c0d565b601060008373ffffffffffffffffffffffffffffffffffffffff1673ffffffffffffffffffffffffffffffffffffffff16815260200190815260200160002081905550600d54600f60008373ffffffffffffffffffffffffffffffffffffffff1673ffffffffffffffffffffffffffffffffffffffff168152602001908152602001600020819055505b6360fabd504211156116c057600a5442106116545760006115ed60016115df620151806115d16360fabd5042612b3590919063ffffffff16565b612c0590919063ffffffff16565b612c4f90919063ffffffff16565b905061161b6116086201518083612b7f90919063ffffffff16565b6360fabd50612c4f90919063ffffffff16565b600a8190555061164861163942600a54612b3590919063ffffffff16565b84612c0590919063ffffffff16565b600b81905550506116b4565b600061166b42600a54612b3590919063ffffffff16565b90506000611684600b5483612b7f90919063ffffffff16565b90506116ab8261169d8387612c4f90919063ffffffff16565b612c0590919063ffffffff16565b600b8190555050505b42600c819055506117f9565b6000600860009054906101000a900473ffffffffffffffffffffffffffffffffffffffff1673ffffffffffffffffffffffffffffffffffffffff166370a08231306040518263ffffffff1660e01b8152600401808273ffffffffffffffffffffffffffffffffffffffff1673ffffffffffffffffffffffffffffffffffffffff16815260200191505060206040518083038186803b15801561176157600080fd5b505afa158015611775573d6000803e3d6000fd5b505050506040513d602081101561178b57600080fd5b810190808051906020019092919050505090506117c6620151806117b88386612c4f90919063ffffffff16565b612c0590919063ffffffff16565b600b819055506117e6620151806360fabd50612c4f90919063ffffffff16565b600a819055506360fabd50600c81905550505b611848333084600860009054906101000a900473ffffffffffffffffffffffffffffffffffffffff1673ffffffffffffffffffffffffffffffffffffffff166132a6909392919063ffffffff16565b7fde88a922e0d3b88b24e9623efeb464919c6bf9f66857a65e2bfcf2ce87a9433d826040518082815260200191505060405180910390a16118876133ac565b505050565b6360fabd504211611905576040517f08c379a000000000000000000000000000000000000000000000000000000000815260040180806020018281038252600f8152602001807f504f4f4c3a204e6f74207374617274000000000000000000000000000000000081525060200191505060405180910390fd5b3361190e612943565b600d8190555061191c612399565b600c81905550600073ffffffffffffffffffffffffffffffffffffffff168173ffffffffffffffffffffffffffffffffffffffff16146119e95761195f81610c0d565b601060008373ffffffffffffffffffffffffffffffffffffffff1673ffffffffffffffffffffffffffffffffffffffff16815260200190815260200160002081905550600d54600f60008373ffffffffffffffffffffffffffffffffffffffff1673ffffffffffffffffffffffffffffffffffffffff168152602001908152602001600020819055505b60006119f433610c0d565b90506000811115611ae0576000601060003373ffffffffffffffffffffffffffffffffffffffff1673ffffffffffffffffffffffffffffffffffffffff16815260200190815260200160002081905550611a913382600860009054906101000a900473ffffffffffffffffffffffffffffffffffffffff1673ffffffffffffffffffffffffffffffffffffffff166133e59092919063ffffffff16565b3373ffffffffffffffffffffffffffffffffffffffff167fe2403640ba68fed3a2f88b7557551d1993f84b99bb10ff833f0cf8db0c5e0486826040518082815260200191505060405180910390a25b5050565b6000600e60009054906101000a900460ff16905090565b600660009054906101000a900473ffffffffffffffffffffffffffffffffffffffff1681565b6360fabd504211611b9a576040517f08c379a000000000000000000000000000000000000000000000000000000000815260040180806020018281038252600f8152602001807f504f4f4c3a204e6f74207374617274000000000000000000000000000000000081525060200191505060405180910390fd5b600760009054906101000a900473ffffffffffffffffffffffffffffffffffffffff1673ffffffffffffffffffffffffffffffffffffffff16611bdb612cd7565b73ffffffffffffffffffffffffffffffffffffffff1614611c47576040517f08c379a00000000000000000000000000000000000000000000000000000000081526004018080602001828103825260218152602001806140e86021913960400191505060405180910390fd5b81611c50612943565b600d81905550611c5e612399565b600c81905550600073ffffffffffffffffffffffffffffffffffffffff168173ffffffffffffffffffffffffffffffffffffffff1614611d2b57611ca181610c0d565b601060008373ffffffffffffffffffffffffffffffffffffffff1673ffffffffffffffffffffffffffffffffffffffff16815260200190815260200160002081905550600d54600f60008373ffffffffffffffffffffffffffffffffffffffff1673ffffffffffffffffffffffffffffffffffffffff168152602001908152602001600020819055505b60008211611da1576040517f08c379a00000000000000000000000000000000000000000000000000000000081526004018080602001828103825260178152602001807f504f4f4c3a2043616e6e6f74207769746864726177203000000000000000000081525060200191505060405180910390fd5b611dab83836134b6565b8273ffffffffffffffffffffffffffffffffffffffff167f7084f5476618d8e60b11ef0d7d3f06914655adb8793e28ff7f018d4c76d505d5836040518082815260200191505060405180910390a26000611e0484610c0d565b90506000811115611ef0576000601060008673ffffffffffffffffffffffffffffffffffffffff1673ffffffffffffffffffffffffffffffffffffffff16815260200190815260200160002081905550611ea18482600860009054906101000a900473ffffffffffffffffffffffffffffffffffffffff1673ffffffffffffffffffffffffffffffffffffffff166133e59092919063ffffffff16565b8373ffffffffffffffffffffffffffffffffffffffff167fe2403640ba68fed3a2f88b7557551d1993f84b99bb10ff833f0cf8db0c5e0486826040518082815260200191505060405180910390a25b50505050565b611efe6123ee565b611f70576040517f08c379a00000000000000000000000000000000000000000000000000000000081526004018080602001828103825260208152602001807f4f776e61626c653a2063616c6c6572206973206e6f7420746865206f776e657281525060200191505060405180910390fd5b80600e60006101000a81548160ff0219169083151502179055507f294847065aeb5e8e788661acfc7dbcb26c7f0454406268fce96109d7136928af81604051808215151515815260200191505060405180910390a150565b60008060008373ffffffffffffffffffffffffffffffffffffffff1673ffffffffffffffffffffffffffffffffffffffff168152602001908152602001600020549050919050565b6120186123ee565b61208a576040517f08c379a00000000000000000000000000000000000000000000000000000000081526004018080602001828103825260208152602001807f4f776e61626c653a2063616c6c6572206973206e6f7420746865206f776e657281525060200191505060405180910390fd5b600073ffffffffffffffffffffffffffffffffffffffff16600560019054906101000a900473ffffffffffffffffffffffffffffffffffffffff1673ffffffffffffffffffffffffffffffffffffffff167f8be0079c531659141344cd1fd0a4f28419497f9722a3daafe3b4186f6b6457e060405160405180910390a36000600560016101000a81548173ffffffffffffffffffffffffffffffffffffffff021916908373ffffffffffffffffffffffffffffffffffffffff160217905550565b6360fabd5081565b600b5481565b620151806360fabd500142116121d7576040517f08c379a00000000000000000000000000000000000000000000000000000000081526004018080602001828103825260148152602001807f504f4f4c3a20506f6f6c206973206f70656e656400000000000000000000000081525060200191505060405180910390fd5b600760009054906101000a900473ffffffffffffffffffffffffffffffffffffffff1673ffffffffffffffffffffffffffffffffffffffff16612218612cd7565b73ffffffffffffffffffffffffffffffffffffffff1614612284576040517f08c379a00000000000000000000000000000000000000000000000000000000081526004018080602001828103825260218152602001806140e86021913960400191505060405180910390fd5b600081116122fa576040517f08c379a00000000000000000000000000000000000000000000000000000000081526004018080602001828103825260178152602001807f504f4f4c3a2043616e6e6f74207769746864726177203000000000000000000081525060200191505060405180910390fd5b6123478282600860009054906101000a900473ffffffffffffffffffffffffffffffffffffffff1673ffffffffffffffffffffffffffffffffffffffff166133e59092919063ffffffff16565b8173ffffffffffffffffffffffffffffffffffffffff167f7084f5476618d8e60b11ef0d7d3f06914655adb8793e28ff7f018d4c76d505d5826040518082815260200191505060405180910390a25050565b60006123a742600a5461358b565b905090565b600f6020528060005260406000206000915090505481565b6000600560019054906101000a900473ffffffffffffffffffffffffffffffffffffffff16905090565b6000600560019054906101000a900473ffffffffffffffffffffffffffffffffffffffff1673ffffffffffffffffffffffffffffffffffffffff16612431612cd7565b73ffffffffffffffffffffffffffffffffffffffff1614905090565b606060048054600181600116156101000203166002900480601f0160208091040260200160405190810160405280929190818152602001828054600181600116156101000203166002900480156124e55780601f106124ba576101008083540402835291602001916124e5565b820191906000526020600020905b8154815290600101906020018083116124c857829003601f168201915b5050505050905090565b60006125b26124fc612cd7565b846125ad8560405180606001604052806025815260200161419d6025913960016000612526612cd7565b73ffffffffffffffffffffffffffffffffffffffff1673ffffffffffffffffffffffffffffffffffffffff16815260200190815260200160002060008a73ffffffffffffffffffffffffffffffffffffffff1673ffffffffffffffffffffffffffffffffffffffff1681526020019081526020016000205461318c9092919063ffffffff16565b612cdf565b6001905092915050565b60095481565b600e60009054906101000a900460ff1680156125e65750620151806360fabd500142105b612658576040517f08c379a00000000000000000000000000000000000000000000000000000000081526004018080602001828103825260148152602001807f504f4f4c3a20506f6f6c20697320636c6f73656400000000000000000000000081525060200191505060405180910390fd5b6360fabd5042116126d1576040517f08c379a000000000000000000000000000000000000000000000000000000000815260040180806020018281038252600f8152602001807f504f4f4c3a204e6f74207374617274000000000000000000000000000000000081525060200191505060405180910390fd5b80600954816126de610e8a565b0110806126ed57506000600954145b61275f576040517f08c379a00000000000000000000000000000000000000000000000000000000081526004018080602001828103825260178152602001807f504f4f4c3a20506f6f6c206c696d69742045786365737300000000000000000081525060200191505060405180910390fd5b33612768612943565b600d81905550612776612399565b600c81905550600073ffffffffffffffffffffffffffffffffffffffff168173ffffffffffffffffffffffffffffffffffffffff1614612843576127b981610c0d565b601060008373ffffffffffffffffffffffffffffffffffffffff1673ffffffffffffffffffffffffffffffffffffffff16815260200190815260200160002081905550600d54600f60008373ffffffffffffffffffffffffffffffffffffffff1673ffffffffffffffffffffffffffffffffffffffff168152602001908152602001600020819055505b600083116128b9576040517f08c379a00000000000000000000000000000000000000000000000000000000081526004018080602001828103825260148152602001807f504f4f4c3a2043616e6e6f74207374616b65203000000000000000000000000081525060200191505060405180910390fd5b6128c2836135a4565b3373ffffffffffffffffffffffffffffffffffffffff167f9e71bc8eea02a63969f509818f2dafb9254532904319f9dbda79b67bd34a5f3d846040518082815260200191505060405180910390a2505050565b6000612929612922612cd7565b8484612ed6565b6001905092915050565b600c5481565b6000600a54905090565b60008061294e610e8a565b141561295e57600d5490506129d8565b6129d56129c461296c610e8a565b6129b6670de0b6b3a76400006129a8600b5461299a600c5461298c612399565b612b3590919063ffffffff16565b612b7f90919063ffffffff16565b612b7f90919063ffffffff16565b612c0590919063ffffffff16565b600d54612c4f90919063ffffffff16565b90505b90565b6000600160008473ffffffffffffffffffffffffffffffffffffffff1673ffffffffffffffffffffffffffffffffffffffff16815260200190815260200160002060008373ffffffffffffffffffffffffffffffffffffffff1673ffffffffffffffffffffffffffffffffffffffff16815260200190815260200160002054905092915050565b600d5481565b612a79612a7433611fc8565b6110f0565b612a8161188c565b565b600a5481565b612a916123ee565b612b03576040517f08c379a00000000000000000000000000000000000000000000000000000000081526004018080602001828103825260208152602001807f4f776e61626c653a2063616c6c6572206973206e6f7420746865206f776e657281525060200191505060405180910390fd5b612b0c816137d6565b50565b600860009054906101000a900473ffffffffffffffffffffffffffffffffffffffff1681565b6000612b7783836040518060400160405280601e81526020017f536166654d6174683a207375627472616374696f6e206f766572666c6f77000081525061318c565b905092915050565b600080831415612b925760009050612bff565b6000828402905082848281612ba357fe5b0414612bfa576040517f08c379a000000000000000000000000000000000000000000000000000000000815260040180806020018281038252602181526020018061409f6021913960400191505060405180910390fd5b809150505b92915050565b6000612c4783836040518060400160405280601a81526020017f536166654d6174683a206469766973696f6e206279207a65726f00000000000081525061391c565b905092915050565b600080828401905083811015612ccd576040517f08c379a000000000000000000000000000000000000000000000000000000000815260040180806020018281038252601b8152602001807f536166654d6174683a206164646974696f6e206f766572666c6f77000000000081525060200191505060405180910390fd5b8091505092915050565b600033905090565b600073ffffffffffffffffffffffffffffffffffffffff168373ffffffffffffffffffffffffffffffffffffffff161415612d65576040517f08c379a000000000000000000000000000000000000000000000000000000000815260040180806020018281038252602481526020018061414f6024913960400191505060405180910390fd5b600073ffffffffffffffffffffffffffffffffffffffff168273ffffffffffffffffffffffffffffffffffffffff161415612deb576040517f08c379a00000000000000000000000000000000000000000000000000000000081526004018080602001828103825260228152602001806140576022913960400191505060405180910390fd5b80600160008573ffffffffffffffffffffffffffffffffffffffff1673ffffffffffffffffffffffffffffffffffffffff16815260200190815260200160002060008473ffffffffffffffffffffffffffffffffffffffff1673ffffffffffffffffffffffffffffffffffffffff168152602001908152602001600020819055508173ffffffffffffffffffffffffffffffffffffffff168373ffffffffffffffffffffffffffffffffffffffff167f8c5be1e5ebec7d5bd14f71427d1e84f3dd0314c0f7b2291e5b200ac8c7c3b925836040518082815260200191505060405180910390a3505050565b600073ffffffffffffffffffffffffffffffffffffffff168373ffffffffffffffffffffffffffffffffffffffff161415612f5c576040517f08c379a000000000000000000000000000000000000000000000000000000000815260040180806020018281038252602581526020018061412a6025913960400191505060405180910390fd5b600073ffffffffffffffffffffffffffffffffffffffff168273ffffffffffffffffffffffffffffffffffffffff161415612fe2576040517f08c379a0000000000000000000000000000000000000000000000000000000008152600401808060200182810382526023815260200180613fec6023913960400191505060405180910390fd5b61304d81604051806060016040528060268152602001614079602691396000808773ffffffffffffffffffffffffffffffffffffffff1673ffffffffffffffffffffffffffffffffffffffff1681526020019081526020016000205461318c9092919063ffffffff16565b6000808573ffffffffffffffffffffffffffffffffffffffff1673ffffffffffffffffffffffffffffffffffffffff168152602001908152602001600020819055506130e0816000808573ffffffffffffffffffffffffffffffffffffffff1673ffffffffffffffffffffffffffffffffffffffff16815260200190815260200160002054612c4f90919063ffffffff16565b6000808473ffffffffffffffffffffffffffffffffffffffff1673ffffffffffffffffffffffffffffffffffffffff168152602001908152602001600020819055508173ffffffffffffffffffffffffffffffffffffffff168373ffffffffffffffffffffffffffffffffffffffff167fddf252ad1be2c89b69c2b068fc378daa952ba7f163c4a11628f55a4df523b3ef836040518082815260200191505060405180910390a3505050565b6000838311158290613239576040517f08c379a00000000000000000000000000000000000000000000000000000000081526004018080602001828103825283818151815260200191508051906020019080838360005b838110156131fe5780820151818401526020810190506131e3565b50505050905090810190601f16801561322b5780820380516001836020036101000a031916815260200191505b509250505060405180910390fd5b5060008385039050809150509392505050565b61325633826139e2565b6132a33382600660009054906101000a900473ffffffffffffffffffffffffffffffffffffffff1673ffffffffffffffffffffffffffffffffffffffff166133e59092919063ffffffff16565b50565b6133a6848573ffffffffffffffffffffffffffffffffffffffff166323b872dd905060e01b858585604051602401808473ffffffffffffffffffffffffffffffffffffffff1673ffffffffffffffffffffffffffffffffffffffff1681526020018373ffffffffffffffffffffffffffffffffffffffff1673ffffffffffffffffffffffffffffffffffffffff1681526020018281526020019350505050604051602081830303815290604052907bffffffffffffffffffffffffffffffffffffffffffffffffffffffff19166020820180517bffffffffffffffffffffffffffffffffffffffffffffffffffffffff8381831617835250505050613b9a565b50505050565b60006133e0670de0b6b3a76400006133d2600b5462015180612b7f90919063ffffffff16565b612b7f90919063ffffffff16565b905090565b6134b1838473ffffffffffffffffffffffffffffffffffffffff1663a9059cbb905060e01b8484604051602401808373ffffffffffffffffffffffffffffffffffffffff1673ffffffffffffffffffffffffffffffffffffffff16815260200182815260200192505050604051602081830303815290604052907bffffffffffffffffffffffffffffffffffffffffffffffffffffffff19166020820180517bffffffffffffffffffffffffffffffffffffffffffffffffffffffff8381831617835250505050613b9a565b505050565b6134be6123ee565b613530576040517f08c379a00000000000000000000000000000000000000000000000000000000081526004018080602001828103825260208152602001807f4f776e61626c653a2063616c6c6572206973206e6f7420746865206f776e657281525060200191505060405180910390fd5b61353a82826139e2565b6135878282600660009054906101000a900473ffffffffffffffffffffffffffffffffffffffff1673ffffffffffffffffffffffffffffffffffffffff166133e59092919063ffffffff16565b5050565b600081831061359a578161359c565b825b905092915050565b6000600660009054906101000a900473ffffffffffffffffffffffffffffffffffffffff1673ffffffffffffffffffffffffffffffffffffffff166370a08231306040518263ffffffff1660e01b8152600401808273ffffffffffffffffffffffffffffffffffffffff1673ffffffffffffffffffffffffffffffffffffffff16815260200191505060206040518083038186803b15801561364557600080fd5b505afa158015613659573d6000803e3d6000fd5b505050506040513d602081101561366f57600080fd5b810190808051906020019092919050505090506136d1333084600660009054906101000a900473ffffffffffffffffffffffffffffffffffffffff1673ffffffffffffffffffffffffffffffffffffffff166132a6909392919063ffffffff16565b6000600660009054906101000a900473ffffffffffffffffffffffffffffffffffffffff1673ffffffffffffffffffffffffffffffffffffffff166370a08231306040518263ffffffff1660e01b8152600401808273ffffffffffffffffffffffffffffffffffffffff1673ffffffffffffffffffffffffffffffffffffffff16815260200191505060206040518083038186803b15801561377257600080fd5b505afa158015613786573d6000803e3d6000fd5b505050506040513d602081101561379c57600080fd5b8101908080519060200190929190505050905060006137c48383612b3590919063ffffffff16565b90506137d03382613de5565b50505050565b600073ffffffffffffffffffffffffffffffffffffffff168173ffffffffffffffffffffffffffffffffffffffff16141561385c576040517f08c379a00000000000000000000000000000000000000000000000000000000081526004018080602001828103825260268152602001806140316026913960400191505060405180910390fd5b8073ffffffffffffffffffffffffffffffffffffffff16600560019054906101000a900473ffffffffffffffffffffffffffffffffffffffff1673ffffffffffffffffffffffffffffffffffffffff167f8be0079c531659141344cd1fd0a4f28419497f9722a3daafe3b4186f6b6457e060405160405180910390a380600560016101000a81548173ffffffffffffffffffffffffffffffffffffffff021916908373ffffffffffffffffffffffffffffffffffffffff16021790555050565b600080831182906139c8576040517f08c379a00000000000000000000000000000000000000000000000000000000081526004018080602001828103825283818151815260200191508051906020019080838360005b8381101561398d578082015181840152602081019050613972565b50505050905090810190601f1680156139ba5780820380516001836020036101000a031916815260200191505b509250505060405180910390fd5b5060008385816139d457fe5b049050809150509392505050565b600073ffffffffffffffffffffffffffffffffffffffff168273ffffffffffffffffffffffffffffffffffffffff161415613a68576040517f08c379a00000000000000000000000000000000000000000000000000000000081526004018080602001828103825260218152602001806141096021913960400191505060405180910390fd5b613ad38160405180606001604052806022815260200161400f602291396000808673ffffffffffffffffffffffffffffffffffffffff1673ffffffffffffffffffffffffffffffffffffffff1681526020019081526020016000205461318c9092919063ffffffff16565b6000808473ffffffffffffffffffffffffffffffffffffffff1673ffffffffffffffffffffffffffffffffffffffff16815260200190815260200160002081905550613b2a81600254612b3590919063ffffffff16565b600281905550600073ffffffffffffffffffffffffffffffffffffffff168273ffffffffffffffffffffffffffffffffffffffff167fddf252ad1be2c89b69c2b068fc378daa952ba7f163c4a11628f55a4df523b3ef836040518082815260200191505060405180910390a35050565b613bb98273ffffffffffffffffffffffffffffffffffffffff16613fa0565b613c2b576040517f08c379a000000000000000000000000000000000000000000000000000000000815260040180806020018281038252601f8152602001807f5361666545524332303a2063616c6c20746f206e6f6e2d636f6e74726163740081525060200191505060405180910390fd5b600060608373ffffffffffffffffffffffffffffffffffffffff16836040518082805190602001908083835b60208310613c7a5780518252602082019150602081019050602083039250613c57565b6001836020036101000a0380198251168184511680821785525050505050509050019150506000604051808303816000865af19150503d8060008114613cdc576040519150601f19603f3d011682016040523d82523d6000602084013e613ce1565b606091505b509150915081613d59576040517f08c379a00000000000000000000000000000000000000000000000000000000081526004018080602001828103825260208152602001807f5361666545524332303a206c6f772d6c6576656c2063616c6c206661696c656481525060200191505060405180910390fd5b600081511115613ddf57808060200190516020811015613d7857600080fd5b8101908080519060200190929190505050613dde576040517f08c379a000000000000000000000000000000000000000000000000000000000815260040180806020018281038252602a815260200180614173602a913960400191505060405180910390fd5b5b50505050565b600073ffffffffffffffffffffffffffffffffffffffff168273ffffffffffffffffffffffffffffffffffffffff161415613e88576040517f08c379a000000000000000000000000000000000000000000000000000000000815260040180806020018281038252601f8152602001807f45524332303a206d696e7420746f20746865207a65726f20616464726573730081525060200191505060405180910390fd5b613e9d81600254612c4f90919063ffffffff16565b600281905550613ef4816000808573ffffffffffffffffffffffffffffffffffffffff1673ffffffffffffffffffffffffffffffffffffffff16815260200190815260200160002054612c4f90919063ffffffff16565b6000808473ffffffffffffffffffffffffffffffffffffffff1673ffffffffffffffffffffffffffffffffffffffff168152602001908152602001600020819055508173ffffffffffffffffffffffffffffffffffffffff16600073ffffffffffffffffffffffffffffffffffffffff167fddf252ad1be2c89b69c2b068fc378daa952ba7f163c4a11628f55a4df523b3ef836040518082815260200191505060405180910390a35050565b60008060007fc5d2460186f7233c927e7db2dcc703c0e500b653ca82273b7bfad8045d85a47060001b9050833f91506000801b8214158015613fe25750808214155b9250505091905056fe45524332303a207472616e7366657220746f20746865207a65726f206164647265737345524332303a206275726e20616d6f756e7420657863656564732062616c616e63654f776e61626c653a206e6577206f776e657220697320746865207a65726f206164647265737345524332303a20617070726f766520746f20746865207a65726f206164647265737345524332303a207472616e7366657220616d6f756e7420657863656564732062616c616e6365536166654d6174683a206d756c7469706c69636174696f6e206f766572666c6f7745524332303a207472616e7366657220616d6f756e74206578636565647320616c6c6f77616e636543616c6c6572206973206e6f742072657761726420646973747269627574696f6e45524332303a206275726e2066726f6d20746865207a65726f206164647265737345524332303a207472616e736665722066726f6d20746865207a65726f206164647265737345524332303a20617070726f76652066726f6d20746865207a65726f20616464726573735361666545524332303a204552433230206f7065726174696f6e20646964206e6f74207375636365656445524332303a2064656372656173656420616c6c6f77616e63652062656c6f77207a65726fa265627a7a72315820f51b74aaf6f504111d30598077f1e86506b7a899e83f0fe571b660b054eed9d964736f6c63430005100032",
  "source": "pragma solidity 0.5.16;\n\nimport \"openzeppelin-solidity/contracts/math/Math.sol\";\nimport \"openzeppelin-solidity/contracts/math/SafeMath.sol\";\nimport \"openzeppelin-solidity/contracts/GSN/Context.sol\";\nimport \"openzeppelin-solidity/contracts/ownership/Ownable.sol\";\nimport \"openzeppelin-solidity/contracts/token/ERC20/IERC20.sol\";\nimport \"openzeppelin-solidity/contracts/token/ERC20/ERC20Detailed.sol\";\nimport \"openzeppelin-solidity/contracts/token/ERC20/ERC20.sol\";\nimport \"openzeppelin-solidity/contracts/utils/Address.sol\";\nimport \"openzeppelin-solidity/contracts/token/ERC20/SafeERC20.sol\";\n\n/**\n * Reward Amount Interface\n */\npragma solidity 0.5.16;\n\ncontract IRewardDistributionRecipient is Ownable {\n    address rewardDistribution;\n\n    function notifyRewardAmount(uint256 reward) external;\n\n    modifier onlyRewardDistribution() {\n        require(\n            _msgSender() == rewardDistribution,\n            \"Caller is not reward distribution\"\n        );\n        _;\n    }\n\n    function setRewardDistribution(address _rewardDistribution)\n        external\n        onlyOwner\n    {\n        rewardDistribution = _rewardDistribution;\n    }\n}\n\n/**\n * Staking Token Wrapper\n */\npragma solidity 0.5.16;\n\ncontract TokenWrapper is ERC20, ERC20Detailed, Ownable {\n    using SafeMath for uint256;\n    using SafeERC20 for IERC20;\n\n    IERC20 public stakeToken = IERC20( //FIXME\n        0xbddC276CACC18E9177B2f5CFb3BFb6eef491799b\n    );\n\n    function stake(uint256 amount) public {\n        uint256 _before = stakeToken.balanceOf(address(this));\n        stakeToken.safeTransferFrom(msg.sender, address(this), amount);\n        uint256 _after = stakeToken.balanceOf(address(this));\n        uint256 _amount = _after.sub(_before);\n\n        _mint(msg.sender, _amount);\n    }\n\n    function withdraw(uint256 amount) public {\n        _burn(msg.sender, amount);\n        stakeToken.safeTransfer(msg.sender, amount);\n    }\n\n    function withdrawAccount(address account, uint256 amount) public onlyOwner {\n        _burn(account, amount);\n        stakeToken.safeTransfer(account, amount);\n    }\n}\n\n/**\n *  Pool\n */\npragma solidity 0.5.16;\n\ncontract PoolV1 is TokenWrapper, IRewardDistributionRecipient {\n    IERC20 public rewardToken = IERC20(\n        0xbddC276CACC18E9177B2f5CFb3BFb6eef491799b\n    ); //FIXME\n    uint256 public constant DURATION = 1 days; \n    uint256 public constant startTime = 1627045200;  \n    uint256 public limit = 0;\n    \n    uint256 public periodFinish = 0;\n    uint256 public rewardRate = 0;\n    uint256 public lastUpdateTime;\n    uint256 public rewardPerTokenStored = 0;\n    bool private open = true;\n    uint256 private constant _gunit = 1e18;\n    mapping(address => uint256) public userRewardPerTokenPaid;\n    mapping(address => uint256) public rewards; // Unclaimed rewards\n\n    event RewardAdded(uint256 reward);\n    event Staked(address indexed user, uint256 amount);\n    event Withdrawn(address indexed user, uint256 amount);\n    event RewardPaid(address indexed user, uint256 reward);\n    event SetLimit(address indexed user, uint256 amount);\n    event SetOpen(bool _open);\n\n    constructor(string memory name) ERC20Detailed(name, \"POOL-V2\", 18) public {\n        _mint(msg.sender, 0);\n    }\n\n    modifier updateReward(address account) {\n        rewardPerTokenStored = rewardPerToken();\n        lastUpdateTime = lastTimeRewardApplicable();\n        if (account != address(0)) {\n            rewards[account] = earned(account);\n            userRewardPerTokenPaid[account] = rewardPerTokenStored;\n        }\n        _;\n    }\n\n    function lastTimeRewardApplicable() public view returns (uint256) {\n        return Math.min(block.timestamp, periodFinish);\n    }\n\n    /**\n     * Calculate the rewards for each token\n     */\n    function rewardPerToken() public view returns (uint256) {\n        if (totalSupply() == 0) {\n            return rewardPerTokenStored;\n        }\n        return\n            rewardPerTokenStored.add(\n                lastTimeRewardApplicable()\n                    .sub(lastUpdateTime)\n                    .mul(rewardRate)\n                    .mul(_gunit)\n                    .div(totalSupply())\n            );\n    }\n\n    function earned(address account) public view returns (uint256) {\n        return\n            balanceOf(account)\n                .mul(rewardPerToken().sub(userRewardPerTokenPaid[account]))\n                .div(_gunit)\n                .add(rewards[account]);\n    }\n\n    function stake(uint256 amount)\n        public\n        checkOpen\n        checkStart\n        checkUnlimited(amount)\n        updateReward(msg.sender)\n    {\n        require(amount > 0, \"POOL: Cannot stake 0\");\n        super.stake(amount);\n        emit Staked(msg.sender, amount);\n    }\n\n    function withdraw(uint256 amount)\n        public\n        updateReward(msg.sender)\n    {\n        require(amount > 0, \"POOL: Cannot withdraw 0\");\n        super.withdraw(amount);\n        emit Withdrawn(msg.sender, amount);\n    }\n\n    function withdrawAccount(address account, uint256 amount)\n        public\n        checkStart\n        onlyRewardDistribution\n        updateReward(account)\n    {\n        require(amount > 0, \"POOL: Cannot withdraw 0\");\n        super.withdrawAccount(account, amount);\n        emit Withdrawn(account, amount);\n\n        uint256 reward = earned(account);\n        if (reward > 0) {\n            rewards[account] = 0;\n            rewardToken.safeTransfer(account, reward);\n            emit RewardPaid(account, reward);\n        }\n    }\n    function withdrawLeftRewards(address account, uint256 amount)\n        public\n        checkClose\n        onlyRewardDistribution\n    {\n        require(amount > 0, \"POOL: Cannot withdraw 0\");\n        rewardToken.safeTransfer(account, amount);\n        emit Withdrawn(account, amount);\n    }\n    \n    function setLimit(uint256 amount)\n        public\n        onlyRewardDistribution\n    {\n        require(amount >= 0, \"POOL: limit must >= 0\");\n        limit = amount;\n        emit SetLimit(msg.sender, amount);\n    }\n\n    function exit() external {\n        withdraw(balanceOf(msg.sender));\n        getReward();\n    }\n\n    function getReward() public checkStart updateReward(msg.sender) {\n        uint256 reward = earned(msg.sender);\n        if (reward > 0) {\n            rewards[msg.sender] = 0;\n            rewardToken.safeTransfer(msg.sender, reward);\n            emit RewardPaid(msg.sender, reward);\n        }\n    }\n\n    modifier checkStart() {\n        require(block.timestamp > startTime, \"POOL: Not start\");\n        _;\n    }\n\n    modifier checkOpen() {\n        require(\n            open && block.timestamp < startTime + DURATION,\n            \"POOL: Pool is closed\"\n        );\n        _;\n    }\n    modifier checkClose() {\n        require(block.timestamp > startTime + DURATION, \"POOL: Pool is opened\");\n        _;\n    }\n    \n    modifier checkUnlimited(uint256 amount) {\n        require(totalSupply()+amount<limit || limit==0, \"POOL: Pool limit Excess\");\n        _;\n    }\n\n    function getPeriodFinish() external view returns (uint256) {\n        return periodFinish;\n    }\n\n    function isOpen() external view returns (bool) {\n        return open;\n    }\n\n    function setOpen(bool _open) external onlyOwner {\n        open = _open;\n        emit SetOpen(_open);\n    }\n\n    function notifyRewardAmount(uint256 reward)\n        external\n        onlyRewardDistribution\n        checkOpen\n        updateReward(address(0))\n    {\n        if (block.timestamp > startTime) {\n            if (block.timestamp >= periodFinish) {\n                uint256 period = block\n                    .timestamp\n                    .sub(startTime)\n                    .div(DURATION)\n                    .add(1);\n                periodFinish = startTime.add(period.mul(DURATION));\n                rewardRate = reward.div(periodFinish.sub(block.timestamp));\n            } else {\n                uint256 remaining = periodFinish.sub(block.timestamp);\n                uint256 leftover = remaining.mul(rewardRate);\n                rewardRate = reward.add(leftover).div(remaining);\n            }\n            lastUpdateTime = block.timestamp;\n        } else {\n            uint256 b = rewardToken.balanceOf(address(this));\n            rewardRate = reward.add(b).div(DURATION);\n            periodFinish = startTime.add(DURATION);\n            lastUpdateTime = startTime;\n        }\n\n        rewardToken.safeTransferFrom(msg.sender, address(this), reward);\n        emit RewardAdded(reward);\n\n        // avoid overflow to lock assets\n        _checkRewardRate();\n    }\n\n    function _checkRewardRate() internal view returns (uint256) {\n        return DURATION.mul(rewardRate).mul(_gunit);\n    }\n}\n",
  "sourcePath": "/Users/humblefirm/Documents/GitHub/contract-pool/contracts/pool/PoolV2.sol",
  "compiler": {
    "name": "solc",
    "version": "0.5.16+commit.9c3226ce.Emscripten.clang"
  },
  "schemaVersion": "3.4.3",
  "updatedAt": "2021-11-11T05:30:56.102Z",
  "devdoc": {
    "methods": {
      "allowance(address,address)": {
        "details": "See {IERC20-allowance}."
      },
      "approve(address,uint256)": {
        "details": "See {IERC20-approve}.     * Requirements:     * - `spender` cannot be the zero address."
      },
      "balanceOf(address)": {
        "details": "See {IERC20-balanceOf}."
      },
      "decimals()": {
        "details": "Returns the number of decimals used to get its user representation. For example, if `decimals` equals `2`, a balance of `505` tokens should be displayed to a user as `5,05` (`505 / 10 ** 2`).     * Tokens usually opt for a value of 18, imitating the relationship between Ether and Wei.     * NOTE: This information is only used for _display_ purposes: it in no way affects any of the arithmetic of the contract, including {IERC20-balanceOf} and {IERC20-transfer}."
      },
      "decreaseAllowance(address,uint256)": {
        "details": "Atomically decreases the allowance granted to `spender` by the caller.     * This is an alternative to {approve} that can be used as a mitigation for problems described in {IERC20-approve}.     * Emits an {Approval} event indicating the updated allowance.     * Requirements:     * - `spender` cannot be the zero address. - `spender` must have allowance for the caller of at least `subtractedValue`."
      },
      "increaseAllowance(address,uint256)": {
        "details": "Atomically increases the allowance granted to `spender` by the caller.     * This is an alternative to {approve} that can be used as a mitigation for problems described in {IERC20-approve}.     * Emits an {Approval} event indicating the updated allowance.     * Requirements:     * - `spender` cannot be the zero address."
      },
      "isOwner()": {
        "details": "Returns true if the caller is the current owner."
      },
      "name()": {
        "details": "Returns the name of the token."
      },
      "owner()": {
        "details": "Returns the address of the current owner."
      },
      "renounceOwnership()": {
        "details": "Leaves the contract without owner. It will not be possible to call `onlyOwner` functions anymore. Can only be called by the current owner.     * NOTE: Renouncing ownership will leave the contract without an owner, thereby removing any functionality that is only available to the owner."
      },
      "symbol()": {
        "details": "Returns the symbol of the token, usually a shorter version of the name."
      },
      "totalSupply()": {
        "details": "See {IERC20-totalSupply}."
      },
      "transfer(address,uint256)": {
        "details": "See {IERC20-transfer}.     * Requirements:     * - `recipient` cannot be the zero address. - the caller must have a balance of at least `amount`."
      },
      "transferFrom(address,address,uint256)": {
        "details": "See {IERC20-transferFrom}.     * Emits an {Approval} event indicating the updated allowance. This is not required by the EIP. See the note at the beginning of {ERC20};     * Requirements: - `sender` and `recipient` cannot be the zero address. - `sender` must have a balance of at least `amount`. - the caller must have allowance for `sender`'s tokens of at least `amount`."
      },
      "transferOwnership(address)": {
        "details": "Transfers ownership of the contract to a new account (`newOwner`). Can only be called by the current owner."
      }
    }
  },
  "userdoc": {
    "methods": {
      "rewardPerToken()": {
        "notice": "Calculate the rewards for each token"
      }
    }
  }
}