{
  "contractName": "RewardGiver",
  "abi": [
    {
      "anonymous": false,
      "inputs": [
        {
          "indexed": false,
          "internalType": "address",
          "name": "_receiver",
          "type": "address"
        },
        {
          "indexed": false,
          "internalType": "uint256",
          "name": "_amount",
          "type": "uint256"
        }
      ],
      "name": "Earned",
      "type": "event"
    },
    {
      "anonymous": false,
      "inputs": [
        {
          "indexed": true,
          "internalType": "address",
          "name": "previousOwner",
          "type": "address"
        },
        {
          "indexed": true,
          "internalType": "address",
          "name": "newOwner",
          "type": "address"
        }
      ],
      "name": "OwnershipTransferred",
      "type": "event"
    },
    {
      "constant": true,
      "inputs": [
        {
          "internalType": "address",
          "name": "",
          "type": "address"
        }
      ],
      "name": "EarnedPaid",
      "outputs": [
        {
          "internalType": "uint256",
          "name": "",
          "type": "uint256"
        }
      ],
      "payable": false,
      "stateMutability": "view",
      "type": "function"
    },
    {
      "constant": true,
      "inputs": [
        {
          "internalType": "address",
          "name": "",
          "type": "address"
        }
      ],
      "name": "EarnedSnapshot",
      "outputs": [
        {
          "internalType": "uint256",
          "name": "",
          "type": "uint256"
        }
      ],
      "payable": false,
      "stateMutability": "view",
      "type": "function"
    },
    {
      "constant": true,
      "inputs": [],
      "name": "POOL",
      "outputs": [
        {
          "internalType": "contract PoolV2",
          "name": "",
          "type": "address"
        }
      ],
      "payable": false,
      "stateMutability": "view",
      "type": "function"
    },
    {
      "constant": true,
      "inputs": [],
      "name": "RCG",
      "outputs": [
        {
          "internalType": "contract IERC20",
          "name": "",
          "type": "address"
        }
      ],
      "payable": false,
      "stateMutability": "view",
      "type": "function"
    },
    {
      "constant": true,
      "inputs": [],
      "name": "isOwner",
      "outputs": [
        {
          "internalType": "bool",
          "name": "",
          "type": "bool"
        }
      ],
      "payable": false,
      "stateMutability": "view",
      "type": "function"
    },
    {
      "constant": true,
      "inputs": [],
      "name": "owner",
      "outputs": [
        {
          "internalType": "address",
          "name": "",
          "type": "address"
        }
      ],
      "payable": false,
      "stateMutability": "view",
      "type": "function"
    },
    {
      "constant": false,
      "inputs": [],
      "name": "renounceOwnership",
      "outputs": [],
      "payable": false,
      "stateMutability": "nonpayable",
      "type": "function"
    },
    {
      "constant": false,
      "inputs": [
        {
          "internalType": "address",
          "name": "newOwner",
          "type": "address"
        }
      ],
      "name": "transferOwnership",
      "outputs": [],
      "payable": false,
      "stateMutability": "nonpayable",
      "type": "function"
    },
    {
      "constant": false,
      "inputs": [],
      "name": "curve",
      "outputs": [
        {
          "internalType": "uint256",
          "name": "",
          "type": "uint256"
        }
      ],
      "payable": false,
      "stateMutability": "nonpayable",
      "type": "function"
    },
    {
      "constant": true,
      "inputs": [
        {
          "internalType": "address",
          "name": "account",
          "type": "address"
        }
      ],
      "name": "earned",
      "outputs": [
        {
          "internalType": "uint256",
          "name": "",
          "type": "uint256"
        }
      ],
      "payable": false,
      "stateMutability": "view",
      "type": "function"
    },
    {
      "constant": false,
      "inputs": [
        {
          "internalType": "address",
          "name": "account",
          "type": "address"
        }
      ],
      "name": "getReward",
      "outputs": [
        {
          "internalType": "uint256",
          "name": "",
          "type": "uint256"
        }
      ],
      "payable": false,
      "stateMutability": "nonpayable",
      "type": "function"
    },
    {
      "constant": false,
      "inputs": [
        {
          "internalType": "address",
          "name": "account",
          "type": "address"
        },
        {
          "internalType": "uint256",
          "name": "amount",
          "type": "uint256"
        }
      ],
      "name": "withdraw",
      "outputs": [],
      "payable": false,
      "stateMutability": "nonpayable",
      "type": "function"
    },
    {
      "constant": false,
      "inputs": [
        {
          "internalType": "address[]",
          "name": "account",
          "type": "address[]"
        },
        {
          "internalType": "uint256[]",
          "name": "amount",
          "type": "uint256[]"
        }
      ],
      "name": "setSnapshot",
      "outputs": [],
      "payable": false,
      "stateMutability": "nonpayable",
      "type": "function"
    }
  ],
  "bytecode": "0x6080604052732d94172436d869c1e3c094bead272508fab0d9e3600160006101000a81548173ffffffffffffffffffffffffffffffffffffffff021916908373ffffffffffffffffffffffffffffffffffffffff16021790555073f38675990f531eb099e6727b3dffbe1fdb395cc0600260006101000a81548173ffffffffffffffffffffffffffffffffffffffff021916908373ffffffffffffffffffffffffffffffffffffffff1602179055506100bc61017c60201b60201c565b6000806101000a81548173ffffffffffffffffffffffffffffffffffffffff021916908373ffffffffffffffffffffffffffffffffffffffff1602179055506000809054906101000a900473ffffffffffffffffffffffffffffffffffffffff1673ffffffffffffffffffffffffffffffffffffffff16600073ffffffffffffffffffffffffffffffffffffffff167f8be0079c531659141344cd1fd0a4f28419497f9722a3daafe3b4186f6b6457e060405160405180910390a3610184565b600033905090565b6115f2806101936000396000f3fe608060405234801561001057600080fd5b50600436106100ce5760003560e01c80638da5cb5b1161008c5780639a72c5c2116100665780639a72c5c214610303578063c00007b01461044f578063f2fde38b146104a7578063f3fef3a3146104eb576100ce565b80638da5cb5b1461023f5780638f32d59b146102895780639a1136cc146102ab576100ce565b80628cc262146100d35780633fb5c9f61461012b578063536fd6a914610183578063715018a6146101cd5780637165485d146101d75780637535d246146101f5575b600080fd5b610115600480360360208110156100e957600080fd5b81019080803573ffffffffffffffffffffffffffffffffffffffff169060200190929190505050610539565b6040518082815260200191505060405180910390f35b61016d6004803603602081101561014157600080fd5b81019080803573ffffffffffffffffffffffffffffffffffffffff169060200190929190505050610734565b6040518082815260200191505060405180910390f35b61018b61074c565b604051808273ffffffffffffffffffffffffffffffffffffffff1673ffffffffffffffffffffffffffffffffffffffff16815260200191505060405180910390f35b6101d5610772565b005b6101df6108ab565b6040518082815260200191505060405180910390f35b6101fd6108b0565b604051808273ffffffffffffffffffffffffffffffffffffffff1673ffffffffffffffffffffffffffffffffffffffff16815260200191505060405180910390f35b6102476108d6565b604051808273ffffffffffffffffffffffffffffffffffffffff1673ffffffffffffffffffffffffffffffffffffffff16815260200191505060405180910390f35b6102916108ff565b604051808215151515815260200191505060405180910390f35b6102ed600480360360208110156102c157600080fd5b81019080803573ffffffffffffffffffffffffffffffffffffffff16906020019092919050505061095d565b6040518082815260200191505060405180910390f35b61044d6004803603604081101561031957600080fd5b810190808035906020019064010000000081111561033657600080fd5b82018360208201111561034857600080fd5b8035906020019184602083028401116401000000008311171561036a57600080fd5b919080806020026020016040519081016040528093929190818152602001838360200280828437600081840152601f19601f820116905080830192505050505050509192919290803590602001906401000000008111156103ca57600080fd5b8201836020820111156103dc57600080fd5b803590602001918460208302840111640100000000831117156103fe57600080fd5b919080806020026020016040519081016040528093929190818152602001838360200280828437600081840152601f19601f820116905080830192505050505050509192919290505050610975565b005b6104916004803603602081101561046557600080fd5b81019080803573ffffffffffffffffffffffffffffffffffffffff169060200190929190505050610ad4565b6040518082815260200191505060405180910390f35b6104e9600480360360208110156104bd57600080fd5b81019080803573ffffffffffffffffffffffffffffffffffffffff169060200190929190505050610b85565b005b6105376004803603604081101561050157600080fd5b81019080803573ffffffffffffffffffffffffffffffffffffffff16906020019092919080359060200190929190505050610c0b565b005b600061072d600460008473ffffffffffffffffffffffffffffffffffffffff1673ffffffffffffffffffffffffffffffffffffffff1681526020019081526020016000205461071f600360008673ffffffffffffffffffffffffffffffffffffffff1673ffffffffffffffffffffffffffffffffffffffff16815260200190815260200160002054610711600361070360056106f5600360008c73ffffffffffffffffffffffffffffffffffffffff1673ffffffffffffffffffffffffffffffffffffffff16815260200190815260200160002054600260009054906101000a900473ffffffffffffffffffffffffffffffffffffffff1673ffffffffffffffffffffffffffffffffffffffff16628cc2628d6040518263ffffffff1660e01b8152600401808273ffffffffffffffffffffffffffffffffffffffff1673ffffffffffffffffffffffffffffffffffffffff16815260200191505060206040518083038186803b1580156106ac57600080fd5b505afa1580156106c0573d6000803e3d6000fd5b505050506040513d60208110156106d657600080fd5b8101908080519060200190929190505050610d4c90919063ffffffff16565b610d9690919063ffffffff16565b610de090919063ffffffff16565b610e6690919063ffffffff16565b610d4c90919063ffffffff16565b9050919050565b60046020528060005260406000206000915090505481565b600160009054906101000a900473ffffffffffffffffffffffffffffffffffffffff1681565b61077a6108ff565b6107ec576040517f08c379a00000000000000000000000000000000000000000000000000000000081526004018080602001828103825260208152602001807f4f776e61626c653a2063616c6c6572206973206e6f7420746865206f776e657281525060200191505060405180910390fd5b600073ffffffffffffffffffffffffffffffffffffffff166000809054906101000a900473ffffffffffffffffffffffffffffffffffffffff1673ffffffffffffffffffffffffffffffffffffffff167f8be0079c531659141344cd1fd0a4f28419497f9722a3daafe3b4186f6b6457e060405160405180910390a360008060006101000a81548173ffffffffffffffffffffffffffffffffffffffff021916908373ffffffffffffffffffffffffffffffffffffffff160217905550565b600090565b600260009054906101000a900473ffffffffffffffffffffffffffffffffffffffff1681565b60008060009054906101000a900473ffffffffffffffffffffffffffffffffffffffff16905090565b60008060009054906101000a900473ffffffffffffffffffffffffffffffffffffffff1673ffffffffffffffffffffffffffffffffffffffff16610941610eee565b73ffffffffffffffffffffffffffffffffffffffff1614905090565b60036020528060005260406000206000915090505481565b61097d6108ff565b6109ef576040517f08c379a00000000000000000000000000000000000000000000000000000000081526004018080602001828103825260208152602001807f4f776e61626c653a2063616c6c6572206973206e6f7420746865206f776e657281525060200191505060405180910390fd5b8051825114610a49576040517f08c379a000000000000000000000000000000000000000000000000000000000815260040180806020018281038252602581526020018061154e6025913960400191505060405180910390fd5b60008090505b8251811015610acf57818181518110610a6457fe5b602002602001015160036000858481518110610a7c57fe5b602002602001015173ffffffffffffffffffffffffffffffffffffffff1673ffffffffffffffffffffffffffffffffffffffff168152602001908152602001600020819055508080600101915050610a4f565b505050565b600080610ae083610539565b905080600460008573ffffffffffffffffffffffffffffffffffffffff1673ffffffffffffffffffffffffffffffffffffffff16815260200190815260200160002060008282540192505081905550610b7c8382600160009054906101000a900473ffffffffffffffffffffffffffffffffffffffff1673ffffffffffffffffffffffffffffffffffffffff16610ef69092919063ffffffff16565b80915050919050565b610b8d6108ff565b610bff576040517f08c379a00000000000000000000000000000000000000000000000000000000081526004018080602001828103825260208152602001807f4f776e61626c653a2063616c6c6572206973206e6f7420746865206f776e657281525060200191505060405180910390fd5b610c0881610fc7565b50565b610c136108ff565b610c85576040517f08c379a00000000000000000000000000000000000000000000000000000000081526004018080602001828103825260208152602001807f4f776e61626c653a2063616c6c6572206973206e6f7420746865206f776e657281525060200191505060405180910390fd5b60008111610cfb576040517f08c379a00000000000000000000000000000000000000000000000000000000081526004018080602001828103825260178152602001807f504f4f4c3a2043616e6e6f74207769746864726177203000000000000000000081525060200191505060405180910390fd5b610d488282600160009054906101000a900473ffffffffffffffffffffffffffffffffffffffff1673ffffffffffffffffffffffffffffffffffffffff16610ef69092919063ffffffff16565b5050565b6000610d8e83836040518060400160405280601e81526020017f536166654d6174683a207375627472616374696f6e206f766572666c6f77000081525061110b565b905092915050565b6000610dd883836040518060400160405280601a81526020017f536166654d6174683a206469766973696f6e206279207a65726f0000000000008152506111cb565b905092915050565b600080831415610df35760009050610e60565b6000828402905082848281610e0457fe5b0414610e5b576040517f08c379a00000000000000000000000000000000000000000000000000000000081526004018080602001828103825260218152602001806115736021913960400191505060405180910390fd5b809150505b92915050565b600080828401905083811015610ee4576040517f08c379a000000000000000000000000000000000000000000000000000000000815260040180806020018281038252601b8152602001807f536166654d6174683a206164646974696f6e206f766572666c6f77000000000081525060200191505060405180910390fd5b8091505092915050565b600033905090565b610fc2838473ffffffffffffffffffffffffffffffffffffffff1663a9059cbb905060e01b8484604051602401808373ffffffffffffffffffffffffffffffffffffffff1673ffffffffffffffffffffffffffffffffffffffff16815260200182815260200192505050604051602081830303815290604052907bffffffffffffffffffffffffffffffffffffffffffffffffffffffff19166020820180517bffffffffffffffffffffffffffffffffffffffffffffffffffffffff8381831617835250505050611291565b505050565b600073ffffffffffffffffffffffffffffffffffffffff168173ffffffffffffffffffffffffffffffffffffffff16141561104d576040517f08c379a00000000000000000000000000000000000000000000000000000000081526004018080602001828103825260268152602001806115286026913960400191505060405180910390fd5b8073ffffffffffffffffffffffffffffffffffffffff166000809054906101000a900473ffffffffffffffffffffffffffffffffffffffff1673ffffffffffffffffffffffffffffffffffffffff167f8be0079c531659141344cd1fd0a4f28419497f9722a3daafe3b4186f6b6457e060405160405180910390a3806000806101000a81548173ffffffffffffffffffffffffffffffffffffffff021916908373ffffffffffffffffffffffffffffffffffffffff16021790555050565b60008383111582906111b8576040517f08c379a00000000000000000000000000000000000000000000000000000000081526004018080602001828103825283818151815260200191508051906020019080838360005b8381101561117d578082015181840152602081019050611162565b50505050905090810190601f1680156111aa5780820380516001836020036101000a031916815260200191505b509250505060405180910390fd5b5060008385039050809150509392505050565b60008083118290611277576040517f08c379a00000000000000000000000000000000000000000000000000000000081526004018080602001828103825283818151815260200191508051906020019080838360005b8381101561123c578082015181840152602081019050611221565b50505050905090810190601f1680156112695780820380516001836020036101000a031916815260200191505b509250505060405180910390fd5b50600083858161128357fe5b049050809150509392505050565b6112b08273ffffffffffffffffffffffffffffffffffffffff166114dc565b611322576040517f08c379a000000000000000000000000000000000000000000000000000000000815260040180806020018281038252601f8152602001807f5361666545524332303a2063616c6c20746f206e6f6e2d636f6e74726163740081525060200191505060405180910390fd5b600060608373ffffffffffffffffffffffffffffffffffffffff16836040518082805190602001908083835b60208310611371578051825260208201915060208101905060208303925061134e565b6001836020036101000a0380198251168184511680821785525050505050509050019150506000604051808303816000865af19150503d80600081146113d3576040519150601f19603f3d011682016040523d82523d6000602084013e6113d8565b606091505b509150915081611450576040517f08c379a00000000000000000000000000000000000000000000000000000000081526004018080602001828103825260208152602001807f5361666545524332303a206c6f772d6c6576656c2063616c6c206661696c656481525060200191505060405180910390fd5b6000815111156114d65780806020019051602081101561146f57600080fd5b81019080805190602001909291905050506114d5576040517f08c379a000000000000000000000000000000000000000000000000000000000815260040180806020018281038252602a815260200180611594602a913960400191505060405180910390fd5b5b50505050565b60008060007fc5d2460186f7233c927e7db2dcc703c0e500b653ca82273b7bfad8045d85a47060001b9050833f91506000801b821415801561151e5750808214155b9250505091905056fe4f776e61626c653a206e6577206f776e657220697320746865207a65726f2061646472657373504f4f4c3a206163636f756e742e6c656e67746820213d20616d6f756e742e6c656e677468536166654d6174683a206d756c7469706c69636174696f6e206f766572666c6f775361666545524332303a204552433230206f7065726174696f6e20646964206e6f742073756363656564a265627a7a723158204f27158bbd9ba189be12dd719cfde6da1219ab68788dfff130ad3244c4745e3364736f6c63430005100032",
  "source": "// SPDX-License-Identifier: MIT\npragma solidity 0.5.16;\n\nimport \"openzeppelin-solidity/contracts/math/SafeMath.sol\";\nimport \"openzeppelin-solidity/contracts/token/ERC20/IERC20.sol\";\nimport \"openzeppelin-solidity/contracts/token/ERC20/SafeERC20.sol\";\nimport \"openzeppelin-solidity/contracts/ownership/Ownable.sol\";\n\ninterface PoolV2 {\n  function earned(address account) external view returns (uint256);\n}\n\ncontract RewardGiver is Ownable {\n  using SafeMath for uint256;\n  using SafeERC20 for IERC20;\n\n  IERC20 public RCG = IERC20(0x2D94172436D869c1e3c094BeaD272508faB0d9E3);\n  PoolV2 public POOL = PoolV2(0xF38675990F531eb099e6727b3dfFbE1fdB395CC0); // Flexible pool 100\n\n  mapping(address => uint256) public EarnedSnapshot;\n  mapping(address => uint256) public EarnedPaid; // Get Total\n\n  function curve() public returns (uint256) {}\n\n  function earned(address account) public view returns (uint256) {\n    // (En - Es) * y + Es - P = earned()\n    // y =\n    // uint256 En = pool.earned(account);\n    // uint256 Es = EarnedSnapshot[account];\n    // uint256 P = EarnedPaid[account];\n    // uint256 reward = En.sub(Es).div(5).mul(3).add(Es).sub(P);\n    return\n      POOL\n        .earned(account)\n        .sub(EarnedSnapshot[account])\n        .div(5)\n        .mul(3)\n        .add(EarnedSnapshot[account])\n        .sub(EarnedPaid[account]);\n  }\n\n  function getReward(address account) public returns (uint256) {\n    uint256 reward = earned(account);\n    EarnedPaid[account] += reward;\n    RCG.safeTransfer(account, reward);\n\n    return reward;\n  }\n\n  function withdraw(address account, uint256 amount) public onlyOwner {\n    require(amount > 0, \"POOL: Cannot withdraw 0\");\n    RCG.safeTransfer(account, amount);\n  }\n\n  function setSnapshot(address[] memory account, uint256[] memory amount)\n    public\n    onlyOwner\n  {\n    require(\n      account.length == amount.length,\n      \"POOL: account.length != amount.length\"\n    );\n    for (uint256 i = 0; i < account.length; i++) {\n      EarnedSnapshot[account[i]] = amount[i];\n    }\n  }\n\n  event Earned(address _receiver, uint256 _amount);\n}\n",
  "sourcePath": "/Users/humblefirm/Github/contract-pool/contracts/pool/RewardGiver.sol",
  "compiler": {
    "name": "solc",
    "version": "0.5.16+commit.9c3226ce.Emscripten.clang"
  },
  "schemaVersion": "3.4.3",
  "updatedAt": "2021-12-01T02:29:00.515Z",
  "devdoc": {
    "methods": {
      "isOwner()": {
        "details": "Returns true if the caller is the current owner."
      },
      "owner()": {
        "details": "Returns the address of the current owner."
      },
      "renounceOwnership()": {
        "details": "Leaves the contract without owner. It will not be possible to call `onlyOwner` functions anymore. Can only be called by the current owner.     * NOTE: Renouncing ownership will leave the contract without an owner, thereby removing any functionality that is only available to the owner."
      },
      "transferOwnership(address)": {
        "details": "Transfers ownership of the contract to a new account (`newOwner`). Can only be called by the current owner."
      }
    }
  },
  "userdoc": {
    "methods": {}
  }
}